:020000040800F2
:1000000000000220B1180008D1160008D716000819
:10001000DD160008E3160008E916000800000000DD
:10002000000000000000000000000000EF160008C3
:10003000FD160008000000000B1700081917000843
:100040000119000801190008011900080119000828
:100050000119000801190008011900080119000818
:100060000119000801190008011900080119000808
:1000700001190008011900080119000801190008F8
:1000800001190008011900080119000801190008E8
:1000900001190008011900080119000801190008D8
:1000A00001190008011900080119000801190008C8
:1000B00001190008011900080119000801190008B8
:1000C00001190008011900080119000801190008A8
:1000D0000119000801190008011900080119000898
:1000E0000119000801190008011900080119000888
:1000F0000119000801190008011900080119000878
:100100000119000801190008011900080119000867
:100110000119000801190008011900080119000857
:100120000119000801190008011900080119000847
:100130000119000801190008011900080119000837
:100140000119000801190008011900082517000805
:100150000119000801190008011900080119000817
:100160000119000801190008011900080119000807
:100170000119000801190008011900080000000019
:08018000011900080119000833
:1001900010B5054C237833B9044B13B10448AFF3C1
:1001A00000800123237010BDC40200200000000065
:1001B00024AB000808B5034B1BB103490348AFF358
:1001C000008008BD00000000C802002024AB000829
:1001D00001F0FF01102A2BDB10F0070F08D010F8F8
:1001E000013B013A8B422DD010F0070F42B3F6D1FC
:1001F000F0B441EA012141EA014122F007047FF015
:1002000000070023F0E80256083C85EA010586EA6B
:10021000010685FA47F5A3FA87F586FA47F6A5FAA7
:1002200087F68EB9EED1F0BC01F0FF0102F00702B3
:1002300032B110F8013B013A83EA010313B1F8D15E
:100240000020704701387047002D06BF354603383F
:10025000073815F0010F07D1013015F4807F02BF78
:10026000013015F4C03F0130F0BC0138704700BFC9
:10027000034613F8012B002AFBD1181A01387047E6
:1002800081F0004102E000BF83F0004330B54FEA47
:1002900041044FEA430594EA050F08BF90EA020FB4
:1002A0001FBF54EA000C55EA020C7FEA645C7FEA47
:1002B000655C00F0E2804FEA5454D4EB5555B8BF6A
:1002C0006D420CDD2C4480EA020281EA030382EADB
:1002D000000083EA010180EA020281EA0303362D6D
:1002E00088BF30BD11F0004F4FEA01314FF4801C40
:1002F0004CEA113102D0404261EB410113F0004F52
:100300004FEA03334CEA133302D0524263EB430308
:1003100094EA050F00F0A780A4F10104D5F1200EA6
:100320000DDB02FA0EFC22FA05F2801841F1000101
:1003300003FA0EF2801843FA05F359410EE0A5F1D5
:1003400020050EF1200E012A03FA0EFC28BF4CF006
:10035000020C43FA05F3C01851EBE37101F00045BC
:1003600007D54FF0000EDCF1000C7EEB00006EEBC9
:100370000101B1F5801F1BD3B1F5001F0CD3490853
:100380005FEA30004FEA3C0C04F101044FEA4452AA
:1003900012F5800F80F09A80BCF1004F08BF5FEA31
:1003A000500C50F1000041EB045141EA050130BD11
:1003B0005FEA4C0C404141EB0101013C28BFB1F523
:1003C000801FE9D291F0000F04BF01460020B1FA6E
:1003D00081F308BF2033A3F10B03B3F120020CDA41
:1003E0000C3208DD02F1140CC2F10C0201FA0CF01F
:1003F00021FA02F10CE002F11402D8BFC2F1200C84
:1004000001FA02F120FA0CFCDCBF41EA0C01904039
:10041000E41AA2BF01EB0451294330BD6FEA040482
:100420001F3C1CDA0C340EDC04F11404C4F120026D
:1004300020FA04F001FA02F340EA030021FA04F37F
:1004400045EA030130BDC4F10C04C4F1200220FAD6
:1004500002F001FA04F340EA0300294630BD21FA14
:1004600004F0294630BD94F0000F83F4801306BFDA
:1004700081F480110134013D4EE77FEA645C18BFCE
:100480007FEA655C29D094EA050F08BF90EA020F65
:1004900005D054EA000C04BF1946104630BD91EA5D
:1004A000030F1EBF0021002030BD5FEA545C05D160
:1004B0004000494128BF41F0004130BD14F580049F
:1004C0003CBF01F5801130BD01F0004545F0FE4113
:1004D00041F470014FF0000030BD7FEA645C1ABF48
:1004E000194610467FEA655C1CBF0B46024650EA7F
:1004F000013406BF52EA033591EA030F41F40021AB
:1005000030BD00BF90F0000F04BF0021704730B530
:100510004FF4806404F132044FF000054FF0000105
:1005200050E700BF90F0000F04BF0021704730B5C6
:100530004FF4806404F1320410F0004548BF40429B
:100540004FF000013EE700BF42004FEAE2014FEAF0
:1005500031014FEA02701FBF12F07F4393F07F4FCB
:1005600081F06051704732F07F4208BF704793F0CE
:100570007F4F04BF41F40021704730B54FF46074E1
:1005800001F0004521F000411CE700BF50EA0102E4
:1005900008BF704730B54FF000050AE050EA01028D
:1005A00008BF704730B511F0004502D5404261EBFD
:1005B00041014FF4806404F132045FEA915C3FF43E
:1005C000D8AE4FF003025FEADC0C18BF03325FEADB
:1005D000DC0C18BF033202EBDC02C2F1200300FA8C
:1005E00003FC20FA02F001FA03FE40EA0E0021FAB1
:1005F00002F11444BDE600BF70B54FF0FF0C4CF49F
:10060000E06C1CEA11541DBF1CEA135594EA0C0F50
:1006100095EA0C0F00F0DEF82C4481EA030621EA8B
:100620004C5123EA4C5350EA013518BF52EA0335C6
:1006300041F4801143F4801338D0A0FB02CE4FF078
:100640000005E1FB02E506F00042E0FB03E54FF0A8
:100650000006E1FB03569CF0000F18BF4EF0010EA0
:10066000A4F1FF04B6F5007F64F5407404D25FEA9C
:100670004E0E6D4146EB060642EAC62141EA55514F
:100680004FEAC52040EA5E504FEACE2EB4F1FD0C91
:1006900088BFBCF5E06F1ED8BEF1004F08BF5FEA0F
:1006A000500E50F1000041EB045170BD06F00046C1
:1006B00046EA010140EA020081EA0301B4EB5C046E
:1006C000C2BFD4EB0C0541EA045170BD41F4801166
:1006D0004FF0000E013C00F3AB8014F1360FDEBF8B
:1006E000002001F0004170BDC4F10004203C35DA67
:1006F0000C341BDC04F11404C4F1200500FA05F3EA
:1007000020FA04F001FA05F240EA020001F000428A
:1007100021F0004110EBD37021FA04F642EB060100
:100720005EEA430E08BF20EAD37070BDC4F10C042A
:10073000C4F1200500FA04F320FA05F001FA04F2EE
:1007400040EA020001F0004110EBD37041F10001DA
:100750005EEA430E08BF20EAD37070BDC4F12005E5
:1007600000FA05F24EEA020E20FA04F301FA05F24D
:1007700043EA020321FA04F001F0004121FA04F2F5
:1007800020EA020000EBD3705EEA430E08BF20EAC5
:10079000D37070BD94F0000F0FD101F000464000FF
:1007A00041EB010111F4801F08BF013CF7D041EA81
:1007B000060195F0000F18BF704703F00046520085
:1007C00043EB030313F4801F08BF013DF7D043EA56
:1007D0000603704794EA0C0F0CEA135518BF95EA0C
:1007E0000C0F0CD050EA410618BF52EA4306D1D193
:1007F00081EA030101F000414FF0000070BD50EAB2
:10080000410606BF1046194652EA430619D094EA3B
:100810000C0F02D150EA013613D195EA0C0F05D125
:1008200052EA03361CBF104619460AD181EA030179
:1008300001F0004141F0FE4141F470014FF0000031
:1008400070BD41F0FE4141F4780170BD70B54FF0CC
:10085000FF0C4CF4E06C1CEA11541DBF1CEA13554C
:1008600094EA0C0F95EA0C0F00F0A7F8A4EB05042E
:1008700081EA030E52EA03354FEA013100F0888025
:100880004FEA03334FF0805545EA131343EA1263EE
:100890004FEA022245EA111545EA10654FEA0026A3
:1008A0000EF000419D4208BF964244F1FD0404F55C
:1008B000407402D25B084FEA3202B61A65EB0305B8
:1008C0005B084FEA32024FF480104FF4002CB6EB75
:1008D000020E75EB030E22BFB61A754640EA0C00F5
:1008E0005B084FEA3202B6EB020E75EB030E22BF35
:1008F000B61A754640EA5C005B084FEA3202B6EB76
:10090000020E75EB030E22BFB61A754640EA9C0034
:100910005B084FEA3202B6EB020E75EB030E22BF04
:10092000B61A754640EADC0055EA060E18D04FEAC2
:10093000051545EA16754FEA06164FEAC30343EA62
:1009400052734FEAC2025FEA1C1CC0D111F4801F2F
:100950000BD141EA00014FF000004FF0004CB6E728
:1009600011F4801F04BF01430020B4F1FD0C88BFC7
:10097000BCF5E06F3FF6AFAEB5EB030C04BFB6EBD2
:10098000020C5FEA500C50F1000041EB045170BDC5
:100990000EF0004E4EEA113114EB5C04C2BFD4EBF2
:1009A0000C0541EA045170BD41F480114FF0000E76
:1009B000013C90E645EA060E8DE60CEA135594EAF2
:1009C0000C0F08BF95EA0C0F3FF43BAF94EA0C0FF5
:1009D0000AD150EA01347FF434AF95EA0C0F7FF46A
:1009E00025AF104619462CE795EA0C0F06D152EABE
:1009F00003353FF4FDAE1046194622E750EA4106A2
:100A000018BF52EA43067FF4C5AE50EA41047FF4B2
:100A10000DAF52EA43057FF4EBAE12E74FF0FF3C17
:100A200006E000BF4FF0010C02E000BF4FF0010CE8
:100A30004DF804CD4FEA410C7FEA6C5C4FEA430C61
:100A400018BF7FEA6C5C1BD001B050EA410C0CBFB0
:100A500052EA430C91EA030F02BF90EA020F002012
:100A6000704710F1000F91EA030F58BF994208BF79
:100A700090422CBFD8176FEAE37040F00100704736
:100A80004FEA410C7FEA6C5C02D150EA013C07D18D
:100A90004FEA430C7FEA6C5CD6D152EA033CD3D0D8
:100AA0005DF8040B704700BF8446104662468C46D2
:100AB0001946634600E000BF01B5FFF7B7FF002805
:100AC00048BF10F1000F01BD4DF808EDFFF7F4FF2E
:100AD0000CBF012000205DF808FB00BF4DF808EDB9
:100AE000FFF7EAFF34BF012000205DF808FB00BFDC
:100AF0004DF808EDFFF7E0FF94BF012000205DF8FE
:100B000008FB00BF4DF808EDFFF7CEFF94BF0120B2
:100B100000205DF808FB00BF4DF808EDFFF7C4FFAB
:100B200034BF012000205DF808FB00BF4FEA410CF4
:100B30007FEA6C5C02D150EA013C0AD14FEA430CD7
:100B40007FEA6C5C02D152EA033C02D14FF0000014
:100B500070474FF0010070474FEA410212F5001252
:100B600015D211D56FF47873B3EB625212D94FEAF4
:100B7000C12343F0004343EA505311F0004F23FADE
:100B800002F018BF404270474FF00000704750EA33
:100B9000013005D111F0004008BF6FF000407047F0
:100BA0004FF00000704700BF53B94AB9002908BF91
:100BB00000281CBF4FF0FF314FF0FF3000F070B93C
:100BC000ADF1080C6DE904CE00F006F8DDF804E0A4
:100BD000DDE9022304B070472DE9F047089E0D4679
:100BE00004460F46002B4AD18A42944665D9B2FA90
:100BF00082F343B102FA03FCC3F120029F4020FAC2
:100C000002F217439C404FEA1C4E1FFA8CF5B7FBCB
:100C1000FEF1220C0EFB117742EA074201FB05F0C0
:100C200090420AD91CEB020201F1FF3780F01C81CF
:100C3000904240F2198102396244121AA4B2B2FB06
:100C4000FEF00EFB102244EA024400FB05F5A5422B
:100C50000AD91CEB040400F1FF3280F00781A542A1
:100C600040F204816444023840EA0140641B0021E0
:100C70001EB1DC400023C6E90043BDE8F0878B428B
:100C800008D9002E00F0ED800021C6E900050846D5
:100C9000BDE8F087B3FA83F1002949D1AB4202D312
:100CA000824200F2F880841A65EB030201201746A5
:100CB000002EE2D0C6E90047DFE702B9FFDEB2FA54
:100CC00082F3002B40F090808A1A4FEA1C471FFAEB
:100CD0008CFE0121B2FBF7F507FB1520220C42EA3E
:100CE00000420EFB05F0904208D91CEB020205F110
:100CF000FF3802D2904200F2CB804546121AA4B2CD
:100D0000B2FBF7F007FB102244EA02440EFB00FEA0
:100D1000A64508D91CEB040400F1FF3202D2A64517
:100D200000F2BB801046A4EB0E0440EA05409FE7AA
:100D3000C1F120078B4022FA07FC4CEA030C05FAAC
:100D400001F420FA07F3FD404FEA1C492343B5FBA9
:100D5000F9F81FFA8CFE09FB18551C0C44EA0544EF
:100D600008FB0EF5A54202FA01F200FA01F00BD9D8
:100D70001CEB040408F1FF3A80F08880A54240F2A1
:100D80008580A8F102086444641B9DB2B4FBF9F3AA
:100D900009FB134445EA044403FB0EFEA64508D9AB
:100DA0001CEB040403F1FF356CD2A6456AD9023B63
:100DB000644443EA0843A3FB0295A4EB0E04AC424F
:100DC000C846AE4656D353D056B1B0EB080264EBDA
:100DD0000E0404FA07F7CA40CC401743C6E9007472
:100DE00018460021BDE8F087C3F1200102FA03FC98
:100DF00020FA01F225FA01F19D402A434FEA1C47EF
:100E00001FFA8CFEB1FBF7F007FB1015110C41EA3D
:100E1000054100FB0EF58D4204FA03F408D91CEBE2
:100E2000010100F1FF382FD28D422DD902386144E3
:100E3000491B92B2B1FBF7F507FB151142EA0142DB
:100E400005FB0EF1914208D91CEB020205F1FF38B7
:100E500016D2914214D9023D6244521A45EA004129
:100E600038E73146304608E73946E6E61046FBE605
:100E70004845A9D2B9EB020865EB0C0E013BA3E78C
:100E80004546EAE72B4694E74046D1E7D0467BE764
:100E9000023D624432E708460AE76444023842E70A
:100EA000704700BF80B584B000AF0346FB80194B8C
:100EB0005B680133184AA2FB03239B09FB6000F027
:100EC00087FD03464FF47A7203FB02F2114B9968D7
:100ED000FB68B1FBF3F3D31A03F57A73BB6000BF71
:100EE00000F076FD03464FF47A7203FB02F2094BE1
:100EF0009968FB68B1FBF3F3D21ABB68D31A03F508
:100F00007A72FB889A42EBD300BF00BF1037BD4610
:100F100080BD00BF10E000E0D34D621080B582B00C
:100F200000AF0346FB71FB79184600F05DFD00BF82
:100F30000837BD4680BD000080B586B000AF0123F4
:100F4000BB6002233B610023FB6080237B603B1D71
:100F50001946334800F07EFE4FF400637B603B1D72
:100F600019462F4800F076FE4FF480637B603B1DEE
:100F700019462B4800F06EFE00F00EF902E0012049
:100F8000FFF7CCFF00F024FD0346C72BF7D9254B14
:100F90000022DA70234B00221A71224B00225A7071
:100FA000204B5B7843F00803DAB21E4B5A700320E3
:100FB00000F028F90520FFF7B1FF032000F022F927
:100FC0000520FFF7ABFF032000F01CF90520FFF719
:100FD000A5FF022000F016F90520FFF79FFF114B37
:100FE0005B7843F02003DBB2184600F099F80D4B14
:100FF00004221A7000F07EF800F016F8094B022265
:101000009A70084B9B7843F00403DBB2184600F05B
:1010100087F80520FFF782FF00BF1837BD4680BD67
:1010200000100240E002002080B500AF012000F077
:1010300077F80520FFF772FF00BF80BD80B582B052
:1010400000AF03463A60FB710B46BB71BA79FB797E
:101050001146184600F01CF940E0254BDB780F2BB9
:1010600010D9234B0022DA70214B1B790133DAB2FD
:101070001F4B1A711E4BDB781D4A12791146184618
:1010800000F006F93B681B780A2B0ED1184B1B7930
:101090000133DAB2164B1A71154BDB78144A127908
:1010A0001146184600F0F4F815E03B681B780D2B4C
:1010B00006D10F4B1B791946002000F0E9F80AE031
:1010C0003B681B78184600F049F8094BDB78013380
:1010D000DAB2074BDA703B6801333B603B681B7840
:1010E000002BBAD100BF00BF0837BD4680BD00BF8E
:1010F000E002002080B500AF084B1B7843F00403EA
:10110000DAB2064B1A70054B1B7843F00803DBB2CA
:10111000184600F005F800BF80BD00BFE0020020C7
:1011200080B582B000AF0346FB71002280210A48DF
:1011300000F02CFFFB791B09DBB2184600F062F8C7
:10114000FB7903F00F03DBB2184600F05BF800BF39
:101150000837BD4680BD00BF0010024080B582B098
:1011600000AF0346FB71012280210A4800F00EFF08
:10117000FB791B09DBB2184600F044F8FB7903F059
:101180000F03DBB2184600F03DF800BF0837BD463C
:1011900080BD00BF0010024080B586B000AF0022C5
:1011A0004FF48061164800F0F1FE0123BB6002237A
:1011B0003B610023FB604FF480537B603B1D19466D
:1011C0000F4800F047FD4FF400537B603B1D19466C
:1011D0000B4800F03FFD4FF480437B603B1D1946F8
:1011E000074800F037FD4FF400437B603B1D194674
:1011F000034800F02FFD00BF1837BD4680BD00BF7B
:101200000010024080B582B000AF0346FB71FB794D
:1012100003F00803DBB21A464FF400411B4800F00C
:10122000B5FEFB7903F00403DBB21A464FF48041AC
:10123000164800F0ABFEFB7903F00203DBB21A465E
:101240004FF40051114800F0A1FEFB7903F00103B7
:10125000DBB21A464FF480510C4800F097FE012291
:101260004FF40061094800F091FE3220FFF71AFEAA
:1012700000224FF40061054800F088FE3220FFF79D
:1012800011FE00BF0837BD4680BD00BF0010024000
:1012900080B584B000AF03460A46FB711346BB71AC
:1012A000104BFB60BB79012B01D90023BB710E4AA7
:1012B000FB79D3700C4ABB791371BB7910333B4473
:1012C00013F8042CFB791344DBB25BB263F07F03A9
:1012D0005BB2DBB21846FFF723FF00BF1037BD46F5
:1012E00080BD00BF00401454E002002080B483B0F1
:1012F00000AF78604FF06043D3F8803E03F0010305
:10130000002B13D04FF06043D3F8003E03F00103ED
:10131000002B0BD000E000BF4FF060431B68002B98
:10132000F9D04FF060437A68D2B21A707B681846E1
:101330000C37BD465DF8047B704780B586B000AFC2
:10134000F860B9607A6000237B6109E0BB685A1CD1
:10135000BA601B781846FFF7C9FF7B6901337B61D0
:101360007A697B689A42F1DB7B6818461837BD467C
:1013700080BD000080B500AF00F0C4FA00F014F8A2
:1013800000F0AAF800F07AF806F030FAFFF7D4FD82
:10139000044A00210020FFF751FE642000F024FBE6
:1013A000FBE700BFA8AB000880B594B000AF07F121
:1013B000200330220021184607F0FAFC07F10C0345
:1013C00000221A605A609A60DA601A610023BB60DA
:1013D000284B1B6C274A43F080531364254B1B6C2E
:1013E00003F08053BB60BB6800237B60224B1B680B
:1013F000214A43F4804313601F4B1B6803F480436E
:101400007B607B6801233B624FF480337B62022365
:10141000BB634FF48003FB6308233B644FF4A87362
:101420007B640223BB640723FB6407F12003184697
:1014300002F088F90346002B01D000F0D3F80F2307
:10144000FB6002233B6100237B614FF4A053BB612F
:101450004FF48053FB6107F10C030521184602F09D
:10146000E9FB0346002B01D000F0BCF800BF503769
:10147000BD4680BD003802400070004080B500AF1E
:10148000124B134A1A60114B124A5A600F4B00223A
:101490009A600E4B0022DA600C4B4FF480421A61C6
:1014A0000A4B00225A61094B00229A61074B002225
:1014B000DA61064B00221A62044800F081FD0346FF
:1014C000002B01D000F08EF800BF80BDE8020020A4
:1014D00000540040801A060080B58AB000AF07F1C2
:1014E000140300221A605A609A60DA601A610023BD
:1014F0003B61394B1B6B384A43F080031363364B17
:101500001B6B03F080033B613B690023FB60324BA4
:101510001B6B314A43F0100313632F4B1B6B03F01B
:101520001003FB60FB680023BB602B4B1B6B2A4A3C
:1015300043F008031363284B1B6B03F00803BB60E5
:10154000BB6800237B60244B1B6B234A43F00103E1
:101550001363214B1B6B03F001037B607B6800234B
:101560003B601D4B1B6B1C4A43F0020313631A4B79
:101570001B6B03F002033B603B6800224FF6804187
:10158000164800F003FD00224FF47841144800F0A3
:10159000FDFC4FF680437B610123BB610023FB61AF
:1015A00000233B6207F1140319460C4800F052FB7C
:1015B0004FF478437B610123BB610023FB6100236F
:1015C0003B6207F114031946054800F043FB00BFD6
:1015D0002837BD4680BD00BF0038024000100240E1
:1015E000000C024080B400AF72B600BFFEE70000FE
:1015F00080B582B000AF00237B60104B5B6C0F4A5C
:1016000043F4804353640D4B5B6C03F480437B6075
:101610007B6800233B60094B1B6C084A43F08053F6
:101620001364064B1B6C03F080533B603B68072040
:1016300000F0CEFA00BF0837BD4680BD003802403A
:1016400080B58AB000AF786007F1140300221A60F9
:101650005A609A60DA601A617B681B68194A934283
:101660002BD100233B61184B1B6B174A43F002033D
:101670001363154B1B6B03F002033B613B69C023F3
:101680007B611223BB610023FB6103233B620423C4
:101690007B6207F1140319460C4800F0DBFA0023C3
:1016A000FB60094B1B6C084A43F400131364064BA0
:1016B0001B6C03F40013FB60FB6800BF2837BD46BA
:1016C00080BD00BF005400400038024000040240CA
:1016D00080B400AFFEE780B400AFFEE780B400AF97
:1016E000FEE780B400AFFEE780B400AFFEE780B451
:1016F00000AF00BFBD465DF8047B704780B400AF0B
:1017000000BFBD465DF8047B704780B400AF00BFEA
:10171000BD465DF8047B704780B500AF00F044F92A
:1017200000BF80BD80B500AF024800F0DDFE00BF05
:1017300080BD00BF2418002080B400AF01231846EC
:10174000BD465DF8047B704780B582B000AF78601D
:10175000396007F07FFB034616221A604FF0FF3313
:1017600018460837BD4680BD80B582B000AF7860AE
:101770004FF0FF317868FFF7E7FFFEE780B586B0EE
:1017800000AFF860B9607A6000237B610AE0AFF3D4
:1017900000800146BB685A1CBA60CAB21A707B69E5
:1017A00001337B617A697B689A42F0DB7B6818467B
:1017B0001837BD4680BD80B483B000AF78604FF06D
:1017C000FF3318460C37BD465DF8047B704780B484
:1017D00083B000AF786039603B684FF400525A60C4
:1017E000002318460C37BD465DF8047B704780B473
:1017F00083B000AF7860012318460C37BD465DF812
:10180000047B704780B485B000AFF860B9607A603F
:10181000002318461437BD465DF8047B704700006E
:1018200080B586B000AF7860144A154BD31A7B613F
:101830007B693B61134B1B68002B02D1114B124A91
:101840001A60104B1A687B6813443A699A4207D2AF
:1018500007F000FB03460C221A604FF0FF3309E04B
:10186000084B1B68FB60074B1A687B681344054AEA
:101870001360FB6818461837BD4680BD0000022083
:10188000000400003C030020A020002080B400AF32
:10189000064BD3F88830054A43F47003C2F8883009
:1018A00000BFBD465DF8047B704700BF00ED00E05F
:1018B000DFF834D00D480E490E4A002302E0D45818
:1018C000C4500433C4188C42F9D30B4A0B4C002388
:1018D00001E013600432A242FBD3FFF7D7FF07F009
:1018E000BFFAFFF747FD704700000220000000200C
:1018F000C40200209CAF0008C40200209C200020ED
:10190000FEE7000080B500AF0E4B1B680D4A43F4A4
:10191000007313600B4B1B680A4A43F48063136027
:10192000084B1B68074A43F480731360032000F0E0
:101930004FF9002000F008F8FFF75AFE0023184680
:1019400080BD00BF003C024080B582B000AF78602F
:10195000124B1A68124B1B7819464FF47A73B3FB7B
:10196000F1F3B2FBF3F3184600F067F90346002BDE
:1019700001D001230EE07B680F2B0AD80022796882
:101980004FF0FF3000F02FF9064A7B681360002308
:1019900000E0012318460837BD4680BD0000002046
:1019A000080000200400002080B400AF064B1B7824
:1019B0001A46064B1B681344044A136000BFBD4619
:1019C0005DF8047B704700BF080000204003002042
:1019D00080B400AF034B1B681846BD465DF8047B1E
:1019E000704700BF4003002080B584B000AF78602E
:1019F000FFF7EEFFB8607B68FB60FB68B3F1FF3F69
:101A000005D00A4B1B781A46FB681344FB6000BFE5
:101A1000FFF7DEFF0246BB68D31AFA689A42F7D88E
:101A200000BF00BF1037BD4680BD00BF08000020CA
:101A300080B485B000AF78607B6803F00703FB607B
:101A40000C4BDB68BB60BA684FF6FF031340BB600A
:101A5000FB681A02BB68134343F0BF6343F40033CF
:101A6000BB60044ABB68D36000BF1437BD465DF855
:101A7000047B704700ED00E080B400AF044BDB68EE
:101A80001B0A03F007031846BD465DF8047B704748
:101A900000ED00E080B483B000AF0346FB7197F91E
:101AA0000730002B0BDBFB7903F01F02074997F986
:101AB00007305B09012000FA02F241F8232000BF41
:101AC0000C37BD465DF8047B704700BF00E100E0C5
:101AD00080B483B000AF03463960FB7197F90730DB
:101AE000002B0ADB3B68DAB20C4997F90730120188
:101AF000D2B20B4483F800230AE03B68DAB208490B
:101B0000FB7903F00F03043B1201D2B20B441A76A7
:101B100000BF0C37BD465DF8047B704700E100E074
:101B200000ED00E080B489B000AFF860B9607A6081
:101B3000FB6803F00703FB61FB69C3F10703042B98
:101B400028BF0423BB61FB690433062B02D9FB6960
:101B5000033B00E000237B614FF0FF32BB6902FAD8
:101B600003F3DA43BB681A407B699A404FF0FF31B8
:101B70007B6901FA03F3D9437B680B401343184692
:101B80002437BD465DF8047B7047000080B582B005
:101B900000AF78607B68013BB3F1807F01D3012304
:101BA0000FE00A4A7B68013B53600F214FF0FF3082
:101BB000FFF78EFF054B00229A60044B07221A6044
:101BC000002318460837BD4680BD00BF10E000E086
:101BD00080B582B000AF78607868FFF729FF00BF5A
:101BE0000837BD4680BD80B586B000AF0346B960FA
:101BF0007A60FB7300237B61FFF73EFF78617A68B0
:101C0000B9687869FFF78EFF024697F90F301146E1
:101C10001846FFF75DFF00BF1837BD4680BD80B591
:101C200082B000AF0346FB7197F907301846FFF703
:101C300031FF00BF0837BD4680BD80B582B000AF20
:101C400078607868FFF7A2FF034618460837BD465C
:101C500080BD000080B489B000AF78603960002397
:101C60007B6100233B610023BB610023FB616BE1CF
:101C70000122FB6902FA03F37B613B681B687A6906
:101C800013403B613A697B699A4240F05A813B6854
:101C90005B6803F00303012B05D03B685B6803F02E
:101CA0000303022B30D17B689B68BB61FB695B003F
:101CB000032202FA03F3DB43BA691340BB613B68BA
:101CC000DA68FB695B0002FA03F3BA691343BB618C
:101CD0007B68BA699A607B685B68BB610122FB69BB
:101CE00002FA03F3DB43BA691340BB613B685B68EC
:101CF0001B0903F00102FB6902FA03F3BA691343FB
:101D0000BB617B68BA695A603B685B6803F0030398
:101D1000032B17D07B68DB68BB61FB695B00032288
:101D200002FA03F3DB43BA691340BB613B689A686C
:101D3000FB695B0002FA03F3BA691343BB617B687A
:101D4000BA69DA603B685B6803F00303022B23D1B6
:101D5000FB69DA087B68083253F82230BB61FB6903
:101D600003F007039B000F2202FA03F3DB43BA6977
:101D70001340BB613B681A69FB6903F007039B00D2
:101D800002FA03F3BA691343BB61FB69DA087B68A3
:101D90000832B96943F822107B681B68BB61FB6994
:101DA0005B00032202FA03F3DB43BA691340BB6111
:101DB0003B685B6803F00302FB695B0002FA03F314
:101DC000BA691343BB617B68BA691A603B685B6898
:101DD00003F44033002B00F0B4800023FB60604B21
:101DE0005B6C5F4A43F4804353645D4B5B6C03F46C
:101DF0008043FB60FB685B4AFB699B08023352F837
:101E00002330BB61FB6903F003039B000F2202FA3E
:101E100003F3DB43BA691340BB617B68524A9342C8
:101E20002BD07B68514A934225D07B68504A93421D
:101E30001FD07B684F4A934219D07B684E4A934229
:101E400013D07B684D4A93420DD07B684C4A934235
:101E500007D07B684B4A934201D107230EE0082349
:101E60000CE006230AE0052308E0042306E0032330
:101E700004E0022302E0012300E00023FA6902F0FB
:101E8000030292009340BA691343BB613549FB6971
:101E90009B080233BA6941F823203B4B9B68BB6126
:101EA0003B69DB43BA691340BB613B685B6803F481
:101EB0008013002B03D0BA693B691343BB61324ADC
:101EC000BB699360304BDB68BB613B69DB43BA693C
:101ED0001340BB613B685B6803F40013002B03D025
:101EE000BA693B691343BB61274ABB69D360264B80
:101EF0005B68BB613B69DB43BA691340BB613B680C
:101F00005B6803F40033002B03D0BA693B691343C9
:101F1000BB611D4ABB6953601B4B1B68BB613B69BE
:101F2000DB43BA691340BB613B685B6803F48033F1
:101F3000002B03D0BA693B691343BB61124ABB69EA
:101F40001360FB690133FB61FB690F2B7FF690AED9
:101F500000BF00BF2437BD465DF8047B704700BF5B
:101F600000380240003801400000024000040240F6
:101F700000080240000C0240001002400014024021
:101F800000180240001C0240003C014080B483B0B5
:101F900000AF78600B467B8013467B707B78002B0C
:101FA00003D07A887B689A6103E07B881A047B6897
:101FB0009A6100BF0C37BD465DF8047B7047000096
:101FC00080B584B000AF78607B68002B01D101231D
:101FD0002BE17B6893F83D30DBB2002B06D17B68A8
:101FE000002283F83C207868FFF72AFB7B682422D4
:101FF00083F83D207B681B681A687B681B6822F0A9
:1020000001021A607B681B681A687B681B6842F4CF
:1020100000421A607B681B681A687B681B6822F4A0
:1020200000421A6001F0FEFFF8607B685B68814A3D
:10203000934207D8FB68804A934294BF0123002350
:10204000DBB206E0FB687D4A934294BF0123002384
:10205000DBB2002B01D00123E7E0FB68784AA2FB4A
:1020600003239B0CBB607B681B685B6823F03F010C
:102070007B681B68BA680A435A607B681B681B6AE6
:1020800023F03F017B685B686A4A934202D8BB68D1
:10209000013309E0BB684FF4967202FB03F3694A0F
:1020A000A2FB03239B0901337A6812680B43136276
:1020B0007B681B68DB6923F44F4222F0FF027B68D8
:1020C0005B685C498B4219D8FB68591E7B685B686A
:1020D0005B00B1FBF3F3591C40F6FC730B40002B83
:1020E0000AD0FB68591E7B685B685B00B1FBF3F3A9
:1020F0000133C3F30B0351E004234FE07B689B687B
:10210000002B11D1FB68581E7B6859680B465B0099
:102110000B44B0FBF3F30133C3F30B03002B0CBFF1
:1021200001230023DBB212E0FB68581E7B6859686C
:102130000B469B000B4499000B44B0FBF3F30133B7
:10214000C3F30B03002B0CBF01230023DBB2002BD6
:1021500001D0012322E07B689B68002B0ED1FB6835
:10216000581E7B6859680B465B000B44B0FBF3F3C9
:102170000133C3F30B0343F400430FE0FB68581E25
:102180007B6859680B469B000B4499000B44B0FBDD
:10219000F3F30133C3F30B0343F440437968096855
:1021A0001343CB617B681B681B6823F0C0017B680D
:1021B000DA697B681B6A1A437B681B680A431A60EA
:1021C0007B681B689B6823F4034323F0FF037A6852
:1021D00011697A68D26811437A6812680B43936078
:1021E0007B681B68DB6823F0FF017B685A697B68AA
:1021F0009B691A437B681B680A43DA607B681B682B
:102200001A687B681B6842F001021A607B68002232
:102210001A647B68202283F83D207B6800221A63C1
:102220007B68002283F83E20002318461037BD4605
:1022300080BD00BFA08601007F841E00FF083D0016
:1022400083DE1B43D34D6210F0B58FB00AAF7860C8
:102250007B68002B01D101230FE17B681B68BB6009
:102260007B6893F8BD34DBB2002B06D17B6800227B
:1022700083F8BC24786805F099FC7B68032283F816
:10228000BD24BB68DB6B03F48073002B02D17B6839
:1022900000221A617B681B68184601F0ECFF7B681E
:1022A0001B683B607E686D4606F110040FCC0FC5BD
:1022B0000FCC0FC594E8030085E80300331D0ECB57
:1022C000386801F0C3FE0346002B05D07B6802226C
:1022D00083F8BD240123D0E07B681B6800211846E9
:1022E00001F0DAFF0023FB734AE0FA7B79681346BA
:1022F000DB0013449B000B443D3301221A70FA7B30
:1023000079681346DB0013449B000B443C33FA7B93
:102310001A70FA7BFB7B98B279681346DB00134492
:102320009B000B44443302461A80FA7B79681346BB
:10233000DB0013449B000B44403300221A70FA7BED
:1023400079681346DB0013449B000B44483300229A
:102350001A60FA7B79681346DB0013449B000B4438
:102360004C3300221A60FA7B79681346DB00134471
:102370009B000B44543300221A60FB7B0133FB7338
:10238000FA7B7B685B689A42AFD30023FB7344E01F
:10239000FA7B79681346DB0013449B000B4403F27D
:1023A0007D2300221A70FA7B79681346DB00134400
:1023B0009B000B4403F51F73FA7B1A70FA7B796854
:1023C0001346DB0013449B000B4403F520730022EB
:1023D0001A70FA7B79681346DB0013449B000B44A8
:1023E00003F5227300221A60FA7B79681346DB003A
:1023F00013449B000B4403F5237300221A60FA7BFD
:1024000079681346DB0013449B000B4403F52573E6
:1024100000221A60FB7B0133FB73FA7B7B685B68ED
:102420009A42B5D37B681B683B607E686D4606F1B7
:1024300010040FCC0FC50FCC0FC594E8030085E83E
:102440000300331D0ECB386801F072FF0346002BEA
:1024500005D07B68022283F8BD2401230DE07B6850
:10246000002283F838207B68012283F8BD247B6832
:102470001B68184603F0C1F8002318461437BD4600
:10248000F0BD80B584B000AF78607B681B68FB60EE
:102490007B6893F8BC34012B01D1022320E07B68D8
:1024A000012283F8BC247B689B6A012B09D17B68DD
:1024B0009B69012B05D0FB689B6B43F48032FB6862
:1024C0009A637B681B68184601F0C4FE7B681B6832
:1024D000184603F071F87B68002283F8BC240023BF
:1024E00018461037BD4680BD90B58DB000AF7860FE
:1024F0007B681B683B623B6AFB617B681B68184614
:1025000003F02FF90346002B40F08A847B681B6898
:10251000184603F093F80346002B00F08084FB6913
:1025200003F500639B681B0AC3F30D027B68C3F8C5
:10253000FC247B681B68184603F080F8034603F010
:102540000203022B07D17B681B685A697B681B68F2
:1025500002F002025A617B681B68184603F06EF8AD
:10256000034603F01003102B61D17B681B689A6946
:102570007B681B6822F010029A613B6A1B6ABB6190
:10258000BB6903F00F021346DB0013449B0003F505
:102590001E737A68134404337B61BB695B0C03F0E0
:1025A0000F03022B24D1BA6947F6F0731340002BB6
:1025B00035D07B691969BB691B099BB2C3F30A0358
:1025C0009BB21A46386A02F0A5FE7B691A69BB699C
:1025D0001B09C3F30A031A447B691A617B691A6AEF
:1025E000BB691B09C3F30A031A447B691A6216E02C
:1025F000BB695B0C03F00F03062B10D17B6803F261
:10260000C44308221946386A02F084FE7B691A6ABC
:10261000BB691B09C3F30A031A447B691A627B680E
:102620001B689A697B681B6842F010029A617B689C
:102630001B68184603F002F8034603F40023B3F5C1
:10264000002F40F0A78000237B627B681B68184640
:1026500003F007F8B86299E0BB6A03F00103002BAE
:1026600000F08E807B681B687A6AD2B211461846E9
:1026700003F02BF838613B6903F00103002B0CD009
:102680007B6A5A01FB69134403F530631A46012340
:102690009360796A786800F0C3FE3B6903F0080331
:1026A000002B0CD07B6A5A01FB69134403F530639D
:1026B0001A4608239360796A786800F099FF3B69AD
:1026C00003F01003002B08D07B6A5A01FB69134406
:1026D00003F530631A46102393603B6903F002034D
:1026E000002B30D03B6A5B6903F08003802B09D15B
:1026F000FB6903F500635B68FA6902F5006243F465
:10270000806353607A6A1346DB0013449B0003F531
:102710001E737A68134404337B617B69DB78012B79
:1027200008D17B690022DA707B6ADBB219467868CF
:1027300005F042FB7B6A5A01FB69134403F53063E1
:102740001A46022393603B6903F02003002B08D054
:102750007B6A5A01FB69134403F530631A46202350
:1027600093603B6903F40053002B09D07B6A5A0144
:10277000FB69134403F530631A464FF4005393602A
:102780007B6A01337B62BB6A5B08BB62BB6A002B5E
:102790007FF462AF7B681B68184602F04FFF034668
:1027A00003F48023B3F5802F40F0DB807B681B6847
:1027B000184602F070FFB86200237B62CDE0BB6A6E
:1027C00003F00103002B00F0C2807B681B687A6A6B
:1027D000D2B21146184602F096FF38613B6903F009
:1027E0000103002B57D07B6A03F00F03012202FA8A
:1027F00003F3FB60FB6903F500635A6BFB68DB4383
:10280000F96901F5006113404B637B6A5A01FB696A
:10281000134403F510631A46012393607B681B6918
:10282000012B32D179687A6A1346DB0013449B008E
:102830000B444C33196878687A6A1346DB001344FA
:102840009B00034448331B68194478687A6A13462E
:10285000DB0013449B0003444C3319607B6A002B5C
:1028600013D179687A6A1346DB0013449B000B444A
:1028700054331B68002B08D17B6818687B6803F20F
:10288000C4431A46012102F09DFF7B6ADBB2194660
:10289000786805F00CFA3B6903F00803002B08D0B8
:1028A0007B6A5A01FB69134403F510631A46082337
:1028B00093603B6903F01003002B08D07B6A5A0138
:1028C000FB69134403F510631A46102393603B69B8
:1028D00003F04003002B08D07B6A5A01FB691344C4
:1028E00003F510631A46402393603B6903F002032B
:1028F000002B23D0796A386A01F07EFE7A6A13468B
:10290000DB0013449B0038337A68134404337B6143
:102910007B69DB78012B08D17B690022DA707B6A46
:10292000DBB21946786805F059FA7B6A5A01FB69EF
:10293000134403F510631A46022393603B6903F0C6
:102940008003002B03D0796A786800F0DBFC7B6A97
:1029500001337B62BB6A5B08BB62BB6A002B7FF4FE
:102960002EAF7B681B68184602F068FE034603F032
:102970000043B3F1004F22D1FB6903F500635B68AC
:10298000FA6902F5006223F0010353607B6893F853
:10299000F434012B08D17B68002283F8F424002151
:1029A000786800F0C3FE02E0786805F0F7F97B680C
:1029B0001B685A697B681B6802F000425A617B6899
:1029C0001B68184602F03AFE034603F40063B3F5B1
:1029D000006F12D1FB6903F500639B6803F00103EC
:1029E000012B02D1786805F0B3F97B681B685A693E
:1029F0007B681B6802F400625A617B681B6818469A
:102A000002F01CFE034603F48053B3F5805F40F0F0
:102A1000B780FB6903F500635B68FA6902F5006241
:102A200023F0010353607B681B681021184601F0F6
:102A3000E3FD0023FB6246E0FB6A5A01FB69134495
:102A400003F510631A464FF67F339360FB6A5A0111
:102A5000FB69134403F510631B68FA6A5101FA69B4
:102A60000A4402F5106223F400131360FB6A5A0152
:102A7000FB69134403F530631A464FF67F339360C6
:102A8000FB6A5A01FB69134403F530631B68FA6A59
:102A90005101FA690A4402F5306223F4001313600D
:102AA000FB6A5A01FB69134403F530631B68FA6A39
:102AB0005101FA690A4402F5306243F00063136081
:102AC000FB6A0133FB627B685B68FA6A9A42B3D3A4
:102AD000FB6903F50063DB69FA6902F5006243F004
:102AE0000113D3617B681B6B002B16D0FB6903F5C8
:102AF0000063D3F88430FA6902F5006243F00B03F7
:102B0000C2F88430FB6903F500635B6CFA6902F577
:102B1000006243F00B03536415E0FB6903F50063A7
:102B20005B69FA6902F5006243F4005343F02B033A
:102B30005361FB6903F500631B69FA6902F50062E2
:102B400043F00B031361FB6903F500631B68FA692B
:102B500002F5006223F4FE6313607B6818687B68EB
:102B60001B69D9B27B6803F2C4431A4602F02AFEFD
:102B70007B681B685A697B681B6802F480525A6143
:102B80007B681B68184602F059FD034603F40053A6
:102B9000B3F5005F24D17B681B68184602F0EFFD97
:102BA0007B681B68184601F0A4FD03461A467B6843
:102BB000DA607B681C6801F029FA01467B68DB68F3
:102BC000DBB21A46204601F0A3FA786805F097F8C0
:102BD0007B681B685A697B681B6802F400525A6163
:102BE0007B681B68184602F029FD034603F00803C2
:102BF000082B0AD1786805F074F87B681B685A695D
:102C00007B681B6802F008025A617B681B681846E3
:102C100002F014FD034603F08003802B22D13B6AAF
:102C20009B6923F080023B6A9A6101237B6214E076
:102C300079687A6A1346DB0013449B000B4403F265
:102C40007F231B78012B05D17B6ADBB2194678689C
:102C500000F027FB7B6A01337B627B685B687A6AE2
:102C60009A42E5D37B681B68184602F0E7FC0346EE
:102C700003F48013B3F5801F3BD101237B622BE06B
:102C80007B6A5A01FB69134403F510631B68BB613F
:102C900079687A6A1346DB0013449B000B44403387
:102CA0001B78012B15D1BB69002B12DA79687A6A7F
:102CB0001346DB0013449B000B443F3301221A7080
:102CC0007B6ADBB263F07F03DBB21946786800F001
:102CD000E8FA7B6A01337B627B685B687A6A9A42B6
:102CE000CED37B681B685A697B681B6802F480122C
:102CF0005A617B681B68184602F0A0FC034603F487
:102D00000013B3F5001F55D101237B6245E07B6AB8
:102D10005A01FB69134403F530631B68BB61796892
:102D20007A6A1346DB0013449B000B4403F52073BF
:102D30001B78012B2ED1BB69002B2BDABB6903F466
:102D400080327B68D3F8FC3403F001039A4221D12E
:102D500079687A6A1346DB0013449B000B4403F244
:102D60007F2301221A703B6A9B6943F080023B6A11
:102D70009A613B6A5B6903F08003002B0AD1FB690F
:102D800003F500635B68FA6902F5006243F40073BF
:102D9000536007E07B6A01337B627B685B687A6A19
:102DA0009A42B4D37B681B685A697B681B6802F43B
:102DB00000125A617B681B68184602F03FFC03460C
:102DC00003F08043B3F1804F0AD1786805F018F81A
:102DD0007B681B685A697B681B6802F080425A61F5
:102DE0007B681B68184602F029FC034603F00403C5
:102DF000042B15D17B681B685B68BB61BB6903F062
:102E00000403002B02D0786805F008F87B681B6883
:102E100059687B681B68BA690A435A6000E000BFC2
:102E20003437BD4690BD80B582B000AF78600B46A8
:102E3000FB707B6893F8BC34012B01D1022313E0B3
:102E40007B68012283F8BC247B68FA7883F83820F9
:102E50007B681B68FA781146184602F087FB7B688E
:102E6000002283F8BC24002318460837BD4680BDE5
:102E700080B584B000AF7860084611461A46034614
:102E8000FB700B463B801346BB700023FB7297F927
:102E90000330002B0FDAFB7803F00F021346DB0040
:102EA00013449B0038337A6813440433FB60FB6897
:102EB00001225A700FE0FB7803F00F021346DB008B
:102EC00013449B0003F51E737A6813440433FB60BC
:102ED000FB6800225A70FB7803F00F03DAB2FB683C
:102EE0001A703A88FB68DA60FB68BA781A71FB6876
:102EF0005B78002B04D0FB681B789AB2FB681A81C0
:102F0000BB78022B02D1FB6800225A717B6893F8D0
:102F1000BC34012B01D102230EE07B68012283F82F
:102F2000BC247B681B68F968184601F007FC7B68C5
:102F3000002283F8BC24FB7A18461037BD4680BDBA
:102F400080B584B000AF78600B46FB7097F9033012
:102F5000002B0FDAFB7803F00F021346DB0013445B
:102F60009B0038337A6813440433FB60FB6801220A
:102F70005A700FE0FB7803F00F021346DB00134496
:102F80009B0003F51E737A6813440433FB60FB68EF
:102F900000225A70FB7803F00F03DAB2FB681A7054
:102FA0007B6893F8BC34012B01D102230EE07B68CF
:102FB000012283F8BC247B681B68F968184601F07D
:102FC00045FC7B68002283F8BC2400231846103798
:102FD000BD4680BD80B586B000AFF8607A603B60CA
:102FE0000B46FB72FB7A03F00F021346DB0013441F
:102FF0009B0003F51E73FA68134404337B617B69FD
:103000007A681A617B693A689A617B6900221A6260
:103010007B6900225A70FB7A03F00F03DAB27B69F6
:103020001A70FB681B69012B02D17A687B695A61AF
:10303000FB7A03F00F03002B09D1FB681868FB68CB
:103040001B69DBB21A46796901F024FF08E0FB68CE
:103050001868FB681B69DBB21A46796901F0D2FC7B
:10306000002318461837BD4680BD80B483B000AF3A
:1030700078600B46FB70FB7803F00F02796813460B
:10308000DB0013449B000B4403F527731B681846B1
:103090000C37BD465DF8047B704780B586B000AF45
:1030A000F8607A603B600B46FB72FB7A03F00F021C
:1030B0001346DB0013449B003833FA68134404338F
:1030C0007B617B697A681A617B693A689A617B697E
:1030D00000221A627B6901225A70FB7A03F00F0307
:1030E000DAB27B691A70FB681B69012B02D17A681E
:1030F0007B695A61FB7A03F00F03002B09D1FB684F
:103100001868FB681B69DBB21A46796901F0C2FED8
:1031100008E0FB681868FB681B69DBB21A4679692E
:1031200001F070FC002318461837BD4680BD80B5FD
:1031300084B000AF78600B46FB70FB7803F00F02A1
:103140007B685B689A4201D9012350E097F903300C
:10315000002B0FDAFB7803F00F021346DB00134459
:103160009B0038337A6813440433FB60FB68012208
:103170005A700DE0FA781346DB0013449B0003F508
:103180001E737A6813440433FB60FB6800225A7094
:10319000FB6801229A70FB7803F00F03DAB2FB6838
:1031A0001A707B6893F8BC34012B01D102231EE016
:1031B0007B68012283F8BC247B681B68F968184689
:1031C00002F000F9FB7803F00F03002B0AD17B68B3
:1031D00018687B681B69D9B27B6803F2C4431A463E
:1031E00002F0F0FA7B68002283F8BC240023184622
:1031F0001037BD4680BD80B584B000AF78600B4607
:10320000FB70FB7803F00F027B685B689A4201D980
:10321000012342E097F90330002B0FDAFB7803F02B
:103220000F021346DB0013449B0038337A681344C3
:103230000433FB60FB6801225A700FE0FB7803F057
:103240000F021346DB0013449B0003F51E737A68DC
:1032500013440433FB60FB6800225A70FB680022B1
:103260009A70FB7803F00F03DAB2FB681A707B6880
:1032700093F8BC34012B01D102230EE07B680122BC
:1032800083F8BC247B681B68F968184602F008F9CB
:103290007B68002283F8BC24002318461037BD4603
:1032A00080BD80B584B000AF78600B46FB7097F9A5
:1032B0000330002B0CDAFB7803F00F021346DB001F
:1032C00013449B0038337A6813440433FB600CE0EA
:1032D000FB7803F00F021346DB0013449B0003F559
:1032E0001E737A6813440433FB607B681B68F968BB
:1032F000184601F027FF0346FB72FB7A1846103789
:10330000BD4680BD80B58AB002AF786039607B6809
:103310001B687B617B693B613A681346DB001344A1
:103320009B0038337A6813440433FB60FB681A6AE5
:10333000FB689B699A4201D901236CE0FB689A699A
:10334000FB681B6AD31AFB61FB68DB68FA699A4267
:1033500002D9FB68DB68FB61FB6903339B08BB6137
:103360002BE0FB689A69FB681B6AD31AFB61FB6858
:10337000DB68FA699A4202D9FB68DB68FB61FB698A
:1033800003339B08BB61FB6819693B68DAB2FB69D0
:1033900098B27B681B69DBB200930346786901F041
:1033A0007BFFFB681A69FB691A44FB681A61FB68BA
:1033B0001A6AFB691A44FB681A623B685A013B6946
:1033C000134403F510639B699BB2BA699A4209D80A
:1033D000FB681A6AFB689B699A4203D2FB689B6987
:1033E000002BBED1FB689A69FB681B6A9A4211D810
:1033F0003B6803F00F03012202FA03F3BB603B6951
:1034000003F500635A6BBB68DB43396901F5006162
:1034100013404B63002318462037BD4680BD000093
:1034200080B588B000AF786039607B681B68FB614D
:10343000FB69BB61FB693C3304331B687B613B6800
:103440005A01BB69134403F530639B683B617B6899
:103450001B69012B7BD13B6903F00803002B15D0BE
:103460007B69614A934240F2B9803B6903F40043AF
:10347000002B00F0B3803B685A01BB69134403F58D
:1034800030631A464FF400439360A7E03B6903F0B2
:103490002003002B09D03B685A01BB69134403F594
:1034A00030631A462023936098E03B6903F02803B9
:1034B000002B40F093807B694B4A93420FD93B69C4
:1034C00003F40043002B0AD03B685A01BB69134444
:1034D00003F530631A464FF4004393607EE03A6888
:1034E0001346DB0013449B0003F51E737A681344F4
:1034F0000433FB60FB68DA693B685901BB690B4424
:1035000003F530631B69C3F31203D21AFB681A6216
:103510003B68002B14D1FB689B69002B09D17B68A9
:1035200018687B6803F2C4431A46012102F04AF985
:1035300006E0FB681A69FB681B6A1A44FB681A619B
:103540003B68DBB21946786804F096FB46E07B697D
:10355000264A934224D13B6903F40043002B0AD04E
:103560003B685A01BB69134403F530631A464FF4B4
:103570000043936032E03B6903F02003002B08D046
:103580003B685A01BB69134403F530631A46202394
:1035900093603B68DBB21946786804F06DFB1DE070
:1035A0003B68002B14D179683A681346DB0013445A
:1035B0009B000B4403F525731B68002B08D17B6827
:1035C00018687B6803F2C4431A46002102F0FAF837
:1035D0003B68DBB21946786804F04EFB00231846BE
:1035E0002037BD4680BD00BF0A30544F0A31544FCA
:1035F00080B586B000AF786039607B681B687B61FE
:103600007B693B617B693C3304331B68FB603B682F
:103610005A013B69134403F530639B68BB60FB6848
:10362000154A93420ED9BB6803F40043002B09D01E
:103630003B685A013B69134403F530631A464FF463
:1036400000439360786804F005FBFB680A4A9342E4
:103650000CD97B681B69012B08D17B6818687B68D3
:1036600003F2C4431A46012102F0ACF800231846C5
:103670001837BD4680BD00BF0A30544F80B485B0B6
:1036800000AF78600B46FB7013463B807B681B687D
:103690005B6ABB60FB78002B07D13B8819047B6811
:1036A0001B68BA680A439A6228E07B681B689B6AB9
:1036B0001B0CBA681344BB600023FB730DE07B68EE
:1036C0001A68FB7B40339B0013445B681B0CBA6891
:1036D0001344BB60FB7B0133FB73FA7BFB78013B3C
:1036E0009A42ECD33B8818047B681968FB78013B4D
:1036F000BA68024340339B000B445A6000231846CB
:103700001437BD465DF8047B704780B483B000AFCA
:1037100078600B467B807B681B687A885A6200233E
:1037200018460C37BD465DF8047B704780B483B003
:1037300000AF78600B46FB7000BF0C37BD465DF8EC
:10374000047B704780B586B000AF78607B68002B43
:1037500001D1012367E27B681B6803F00103002BA2
:1037600075D0884B9B6803F00C03042B0CD0854B61
:103770009B6803F00C03082B12D1824B5B6803F4A7
:103780008003B3F5800F0BD17E4B1B6803F400332D
:10379000002B5BD07B685B68002B57D1012342E292
:1037A0007B685B68B3F5803F06D1764B1B68754A32
:1037B00043F4803313601DE07B685B68B3F5A02F92
:1037C0000CD1704B1B686F4A43F4802313606D4B20
:1037D0001B686C4A43F4803313600BE0694B1B6831
:1037E000684A23F480331360664B1B68654A23F4F0
:1037F000802313607B685B68002B13D0FEF7E8F82A
:10380000386108E0FEF7E4F802463B69D31A642BFE
:1038100001D9032307E25B4B1B6803F40033002B41
:10382000F0D014E0FEF7D4F8386108E0FEF7D0F8E5
:1038300002463B69D31A642B01D90323F3E1514BB0
:103840001B6803F40033002BF0D100E000BF7B685D
:103850001B6803F00203002B63D04A4B9B6803F004
:103860000C03002B0BD0474B9B6803F00C03082B79
:103870001CD1444B5B6803F48003002B16D1414BF1
:103880001B6803F00203002B05D07B68DB68012B6B
:1038900001D00123C7E13B4B1B6823F0F8027B6892
:1038A0001B69DB00374913430B603AE07B68DB6838
:1038B000002B20D0344B01221A60FEF789F83861C2
:1038C00008E0FEF785F802463B69D31A022B01D9BE
:1038D0000323A8E12B4B1B6803F00203002BF0D05D
:1038E000284B1B6823F0F8027B681B69DB00254925
:1038F00013430B6015E0244B00221A60FEF768F8B2
:10390000386108E0FEF764F802463B69D31A022BDF
:1039100001D9032387E11B4B1B6803F00203002B33
:10392000F0D17B681B6803F00803002B36D07B685E
:103930005B69002B16D0154B01221A60FEF748F880
:10394000386108E0FEF744F802463B69D31A022BBF
:1039500001D9032367E10B4B5B6F03F00203002BDC
:10396000F0D01BE0094B00221A60FEF731F83861F5
:103970000EE0FEF72DF802463B69D31A022B07D959
:10398000032350E10038024000004742800E4742C6
:10399000884B5B6F03F00203002BEAD17B681B6846
:1039A00003F00403002B00F097800023FB75814B8C
:1039B0001B6C03F08053002B0FD10023BB607D4BA9
:1039C0001B6C7C4A43F0805313647A4B1B6C03F0EE
:1039D0008053BB60BB680123FB75774B1B6803F406
:1039E0008073002B18D1744B1B68734A43F48073A7
:1039F0001360FDF7EDFF386108E0FDF7E9FF0246CF
:103A00003B69D31A022B01D903230CE16A4B1B68D3
:103A100003F48073002BF0D07B689B68012B06D1E8
:103A2000644B1B6F634A43F0010313671CE07B6820
:103A30009B68052B0CD15F4B1B6F5E4A43F0040360
:103A400013675C4B1B6F5B4A43F0010313670BE08A
:103A5000584B1B6F574A23F001031367554B1B6FDD
:103A6000544A23F0040313677B689B68002B15D02E
:103A7000FDF7AEFF38610AE0FDF7AAFF02463B6999
:103A8000D31A41F28832934201D90323CBE0494B48
:103A90001B6F03F00203002BEED014E0FDF798FF3C
:103AA00038610AE0FDF794FF02463B69D31A41F200
:103AB0008832934201D90323B5E03E4B1B6F03F0DC
:103AC0000203002BEED1FB7D012B05D1394B1B6C82
:103AD000384A23F0805313647B689B69002B00F005
:103AE000A180344B9B6803F00C03082B5CD07B68EF
:103AF0009B69022B41D1314B00221A60FDF768FF10
:103B0000386108E0FDF764FF02463B69D31A022BD7
:103B100001D9032387E0274B1B6803F00073002BB8
:103B2000F0D17B68DA697B681B6A1A437B685B6A41
:103B30009B011A437B689B6A5B08013B1B041A4389
:103B40007B68DB6A1B061B4913434B601B4B01223E
:103B50001A60FDF73DFF386108E0FDF739FF0246C6
:103B60003B69D31A022B01D903235CE0114B1B687C
:103B700003F00073002BF0D054E0104B00221A60C9
:103B8000FDF726FF386108E0FDF722FF02463B699A
:103B9000D31A022B01D9032345E0064B1B6803F01F
:103BA0000073002BF0D13DE07B689B69012B07D1AE
:103BB000012338E0003802400070004060004742B6
:103BC0001B4B5B68FB607B689B69012B28D0FB6803
:103BD00003F480027B68DB699A4221D1FB6803F021
:103BE0003F027B681B6A9A421AD1FA6847F6C07393
:103BF00013407A68526A9201934211D1FB6803F430
:103C000040327B689B6A5B08013B1B049A4207D1E8
:103C1000FB6803F070627B68DB6A1B069A4201D086
:103C2000012300E0002318461837BD4680BD00BFC1
:103C30000038024080B584B000AF786039607B689E
:103C4000002B01D10123CCE0684B1B6803F0070374
:103C50003A689A420CD9654B3A68D2B21A70634BF3
:103C60001B6803F007033A689A4201D00123B8E0C9
:103C70007B681B6803F00203002B20D07B681B6865
:103C800003F00403002B05D0594B9B68584A43F4BA
:103C9000E05393607B681B6803F00803002B05D09A
:103CA000534B9B68524A43F460439360504B9B686C
:103CB00023F0F0027B689B684D4913438B607B685F
:103CC0001B6803F00103002B44D07B685B68012B69
:103CD00007D1474B1B6803F40033002B19D1012394
:103CE0007FE07B685B68022B03D07B685B68032BFB
:103CF00007D13F4B1B6803F00073002B09D1012350
:103D00006FE03B4B1B6803F00203002B01D1012342
:103D100067E0374B9B6823F003027B685B6834499C
:103D200013438B60FDF754FEF8600AE0FDF750FE88
:103D30000246FB68D31A41F28832934201D9032329
:103D40004FE02B4B9B6803F00C027B685B689B0089
:103D50009A42EBD1254B1B6803F007033A689A425D
:103D60000CD2224B3A68D2B21A70204B1B6803F077
:103D700007033A689A4201D0012332E07B681B684E
:103D800003F00403002B08D0194B9B6823F4E05286
:103D90007B68DB68164913438B607B681B6803F004
:103DA0000803002B09D0124B9B6823F460427B6808
:103DB0001B69DB000E4913438B6000F021F80246BB
:103DC0000B4B9B681B0903F00F030A49CB5C22FADB
:103DD00003F3094A1360094B1B681846FDF7B4FD4D
:103DE000002318461037BD4680BD00BF003C02408E
:103DF0000038024000AC0008000000200400002051
:103E00002DE9B04F94B000AF00237B640023FB6426
:103E100000233B640023BB64794B9B6803F00C03D5
:103E2000082B0DD0082B00F2E180002B02D0042BD0
:103E300003D0DBE0734BBB64DBE0734BBB64D8E0C7
:103E40006F4B5B6803F03F037B646D4B5B6803F46F
:103E50008003002B63D06A4B5B689B090022BB6325
:103E6000FA63BB6BC3F308033B6300237B63D7E9AF
:103E70000C4522462B464FF000004FF0000159013F
:103E800041EAD261500102460B462146511A39617E
:103E9000294663EB01037B614FF000024FF0000302
:103EA000D7E904AB59468B01514643EA9163514629
:103EB0008A015146B2EB0108594663EB01094FF004
:103EC00000024FF000034FEAC90343EA58734FEA78
:103ED000C80290469946234618EB0303BB602B4665
:103EE00049EB0303FB604FF000024FF00003D7E9FA
:103EF000024529464B02214643EAD15321464A0254
:103F0000104619467B6C0022BB62FA62D7E90A238D
:103F1000FCF74AFE02460B461346FB6458E0384B5A
:103F20005B689B09002218461146C0F308033B62F8
:103F300000237B62D7E9088942464B464FF00000D8
:103F40004FF00001590141EAD261500102460B468F
:103F50004146B2EB010A494663EB010B4FF0000208
:103F60004FF000034FEA8B1343EA9A634FEA8A1239
:103F7000B2EB0A0463EB0B054FF000024FF00003B5
:103F8000EB0043EA5473E20014461D464346E3182F
:103F90003B604B4645EB03037B604FF000024FF064
:103FA0000003D7E9004529468B02214643EA915395
:103FB00021468A02104619467B6C0022BB61FA61D9
:103FC000D7E90623FCF7F0FD02460B461346FB64D7
:103FD0000B4B5B681B0C03F0030301335B003B647A
:103FE000FA6C3B6CB2FBF3F3BB6402E0054BBB64C1
:103FF00000BFBB6C18465037BD46BDE8B08F00BF50
:10400000003802400024F40000127A0080B400AFAF
:10401000034B1B681846BD465DF8047B704700BF24
:104020000000002080B500AFFFF7F0FF0246054B0F
:104030009B689B0A03F007030349CB5C22FA03F356
:10404000184680BD0038024010AC000884B080B52E
:1040500084B000AF786007F11C0080E80E003B6B75
:10406000012B22D17B689B6B23F480327B689A639F
:104070007B68DB6823F4840323F040037A68D36011
:104080007B68DB6823F440127B68DA60FB6C012BF1
:1040900005D17B68DB6843F480127B68DA6078685E
:1040A00001F0EEFB0346FB731AE07B68DB6843F02C
:1040B00040027B68DA60786801F0E2FB0346FB733C
:1040C0003B6C002B06D17B689B6B43F480327B6892
:1040D0009A6305E07B689B6B23F480327B689A636C
:1040E000BB6A012B0BD17B689B6843F006027B689F
:1040F0009A607B689B6843F020027B689A60FB7B38
:1041000018461037BD46BDE8804004B07047000037
:1041100080B487B000AFF860B9601346FB71FB79DB
:10412000022B65D1BB68414A934206D9BB68404A1D
:10413000934202D20F237B6162E0BB683C4A934208
:1041400006D3BB683B4A934202D20E237B6157E001
:10415000BB68384A934206D3BB68374A934202D2BF
:104160000D237B614CE0BB68334A934206D3BB68A6
:10417000324A934202D80C237B6141E0BB682F4A4C
:10418000934206D9BB682E4A934202D80B237B6127
:1041900036E0BB682A4A934206D9BB68294A934253
:1041A00002D80A237B612BE0BB68264A934206D9DA
:1041B000BB68254A934202D209237B6120E0BB6899
:1041C000214A934206D3BB68204A934202D808236F
:1041D0007B6115E0BB681D4A934206D9BB681C4A47
:1041E000934202D207237B610AE006237B6107E04A
:1041F000FB79002B02D109237B6101E009237B615C
:10420000FB68DB6823F47052FB68DA60FB68DA68ED
:104210007B699B0203F470531A43FB68DA60002346
:1042200018461C37BD465DF8047B7047BFACD8000C
:10423000C0E1E4000024F400807306019F491A01E4
:10424000FF2C31013FA44C0100366E011FABA601CB
:104250000048E80180B483B000AF78607B689B6859
:1042600043F001027B689A60002318460C37BD4674
:104270005DF8047B704780B483B000AF78607B68E2
:104280009B6823F001027B689A60002318460C3774
:10429000BD465DF8047B704780B584B000AF7860A0
:1042A0000B46FB700023FB607B68DB6823F0C04299
:1042B0007B68DA60FB78012B15D17B68DB6843F003
:1042C00000527B68DA600120FDF78EFBFB6801334A
:1042D000FB60786801F045FA0346012B1ED0FB68AD
:1042E000312BF0D91AE0FB78002B15D17B68DB6805
:1042F00043F080427B68DA600120FDF775FBFB68C4
:104300000133FB60786801F02CFA0346002B05D0DE
:10431000FB68312BF0D901E0012305E0FB68322B6B
:1043200001D1012300E0002318461037BD4680BDAF
:1043300084B080B586B000AF786007F1240080E8D3
:104340000E000023FB757B68FB6000233B6109E0E6
:104350007A683B6940339B00134400225A603B69F2
:1043600001333B613B690E2BF2D9FB6C002B1CD156
:10437000FB6803F500635B68FA6802F5006243F0CE
:10438000020353607B689B6B43F400127B689A6363
:104390007B689B6B23F400227B689A637B689B6B32
:1043A00023F480227B689A630BE07B689B6B23F489
:1043B00000127B689A637B689B6B43F400227B68E6
:1043C0009A63FB6803F560631A4600231360FB6879
:1043D00003F500631946FB6803F500631A460B6892
:1043E0001360BB6B012B0CD1FB6A002B04D10021A5
:1043F000786800F065F908E00121786800F060F95C
:1044000003E00321786800F05BF91021786800F080
:10441000F3F80346002B01D00123FB75786800F008
:104420001FF90346002B01D00123FB75FB6803F540
:1044300000631A4600231361FB6803F500631A4604
:1044400000235361FB6803F500631A460023D36120
:1044500000233B6143E03B695A01FB68134403F5C9
:1044600010631B6803F00043B3F1004F18D13B69A0
:10447000002B0AD13B695A01FB68134403F5106312
:104480001A464FF00063136013E03B695A01FB6862
:10449000134403F510631A464FF09043136008E08D
:1044A0003B695A01FB68134403F510631A46002365
:1044B00013603B695A01FB68134403F510631A4605
:1044C000002313613B695A01FB68134403F5106331
:1044D0001A464FF67F3393603B6901333B617B6A39
:1044E0003A699A42B7D300233B6143E03B695A01E2
:1044F000FB68134403F530631B6803F00043B3F11A
:10450000004F18D13B69002B0AD13B695A01FB6867
:10451000134403F530631A464FF00063136013E051
:104520003B695A01FB68134403F530631A464FF0A8
:104530009043136008E03B695A01FB68134403F59C
:1045400030631A46002313603B695A01FB68134429
:1045500003F530631A46002313613B695A01FB6877
:10456000134403F530631A464FF67F3393603B697B
:1045700001333B617B6A3A699A42B7D3FB6803F522
:1045800000631B69FA6802F5006223F4807313610B
:104590007B6800229A617B686FF080425A613B6BB6
:1045A000002B05D17B689B6943F010027B689A6100
:1045B0007B689A690F4B13437A689361FB6B002BFE
:1045C00005D07B689B6943F008027B689A61FB6CAD
:1045D000012B07D17B689B6943F0804343F00403C0
:1045E0007A689361FB7D18461837BD46BDE8804068
:1045F00004B0704700383C8080B485B000AF78606C
:1046000039600023FB60FB680133FB60FB68134AE1
:10461000934201D903231BE07B681B69002BF2DA6C
:104620000023FB603B689B0143F020027B681A611A
:10463000FB680133FB60FB68084A934201D90323FE
:1046400006E07B681B6903F02003202BF0D00023D9
:1046500018461437BD465DF8047B7047400D0300D3
:1046600080B485B000AF78600023FB60FB68013345
:10467000FB60FB68114A934201D9032318E07B6871
:104680001B69002BF2DA0023FB607B6810221A61A1
:10469000FB680133FB60FB68084A934201D903239E
:1046A00006E07B681B6903F01003102BF0D0002399
:1046B00018461437BD465DF8047B7047400D030073
:1046C00080B485B000AF78600B46FB707B68FB6000
:1046D000FB6803F500631A68FB78F96801F500616F
:1046E00013430B60002318461437BD465DF8047B66
:1046F000704780B487B000AF78607B683B613B69EE
:1047000003F500639B6803F00603FB60FB68002B66
:1047100002D10023FB750AE0FB68022B02D0FB6884
:10472000062B02D10223FB7501E00F23FB75FB7DF5
:1047300018461C37BD465DF8047B704780B485B0D1
:1047400000AF786039607B68FB603B681B78BB60BA
:104750003B685B78012B3AD1FB6803F50063DA69AB
:104760003B681B7803F00F03012101FA03F39BB2AE
:10477000F96801F500611343CB61BB685A01FB681E
:10478000134403F510631B6803F40043002B55D159
:10479000BB685A01FB68134403F510631A683B6851
:1047A000DB68C3F30A013B681B799B041943BB68B0
:1047B0009B050B431343BA685101FA680A4402F59A
:1047C000106243F0805343F40043136036E0FB680B
:1047D00003F50063DA693B681B7803F00F030121DE
:1047E00001FA03F31B04F96801F500611343CB617F
:1047F000BB685A01FB68134403F530631B6803F47C
:104800000043002B1AD1BB685A01FB68134403F51F
:1048100030631A683B68DB68C3F30A013B681B79A5
:104820009B040B431343BA685101FA680A4402F52A
:10483000306243F0805343F4004313600023184672
:104840001437BD465DF8047B7047000080B485B026
:1048500000AF786039607B68FB603B681B78BB60A9
:104860003B685B78012B61D1BB685A01FB6813443C
:1048700003F510631B6803F00043B3F1004F1FD131
:10488000BB685A01FB68134403F510631B68BA68E0
:104890005101FA680A4402F5106243F000631360A4
:1048A000BB685A01FB68134403F510631B68BA68C0
:1048B0005101FA680A4402F5106243F08043136024
:1048C000FB6803F50063DA6B3B681B7803F00F03AA
:1048D000012101FA03F39BB2DB43F96801F50061A2
:1048E0001340CB63FB6803F50063DA693B681B7810
:1048F00003F00F03012101FA03F39BB2DB43F968D4
:1049000001F500611340CB61BB685A01FB68134499
:1049100003F510631A68BB685901FB680B4403F583
:1049200010631946354B13400B6060E0BB685A01B9
:10493000FB68134403F530631B6803F00043B3F1D5
:10494000004F1FD1BB685A01FB68134403F5306365
:104950001B68BA685101FA680A4402F5306243F0F4
:1049600000631360BB685A01FB68134403F53063AE
:104970001B68BA685101FA680A4402F5306243F0D4
:1049800080431360FB6803F50063DA6B3B681B78B8
:1049900003F00F03012101FA03F31B04DB43F96861
:1049A00001F500611340CB63FB6803F50063DA692E
:1049B0003B681B7803F00F03012101FA03F31B048A
:1049C000DB43F96801F500611340CB61BB685A0114
:1049D000FB68134403F530631A68BB685901FB6830
:1049E0000B4403F530631946054B13400B6000235D
:1049F00018461437BD465DF8047B7047007833ECE9
:104A00000078F3EF80B58AB002AFF860B960134662
:104A1000FB71FB68FB61BB681B78BB61BB685B78A3
:104A2000012B40F05C81BB689B69002B32D1BB69D4
:104A30005A01FB69134403F510631B69BA695101FC
:104A4000FA690A4402F5106223F0FF5323F4C013FD
:104A50001361BB695A01FB69134403F510631B69B9
:104A6000BA695101FA690A4402F5106243F400235D
:104A70001361BB695A01FB69134403F510631B6999
:104A8000BA695101FA690A4402F51062DB0CDB04D1
:104A9000136174E0BB695A01FB69134403F51063A9
:104AA0001B69BA695101FA690A4402F51062DB0C0C
:104AB000DB041361BB695A01FB69134403F51063FE
:104AC0001B69BA695101FA690A4402F5106223F0C0
:104AD000FF5323F4C0131361BB695A01FB691344EC
:104AE00003F510631A69BB689969BB68DB680B44FE
:104AF000591EBB68DB68B1FBF3F3D9049D4B0B4037
:104B0000B9694801F969014401F5106113430B616A
:104B1000BB695A01FB69134403F510631A69BB684A
:104B20009B69C3F31203B9694801F969014401F5AE
:104B3000106113430B61BB681B79012B1FD1BB694B
:104B40005A01FB69134403F510631B69BA695101EB
:104B5000FA690A4402F5106223F0C0431361BB698D
:104B60005A01FB69134403F510631B69BA695101CB
:104B7000FA690A4402F5106243F000531361FB79AD
:104B8000012B4BD1BB685B69002B09D0BB695A0173
:104B9000FB69134403F510631A46BB685B695361F4
:104BA000BB681B79012B28D1FB6903F500639B6867
:104BB00003F48073002B10D1BB695A01FB691344C5
:104BC00003F510631B68BA695101FA690A4402F5DA
:104BD000106243F0005313600FE0BB695A01FB6998
:104BE000134403F510631B68BA695101FA690A445A
:104BF00002F5106243F080531360BB695A01FB69F0
:104C0000134403F510631B68BA695101FA690A4439
:104C100002F5106243F00443136033E1BB695A01AB
:104C2000FB69134403F510631B68BA695101FA6903
:104C30000A4402F5106243F004431360BB681B7919
:104C4000012B15D0BB689B69002B00F01B81FB6911
:104C500003F500635A6BBB681B7803F00F03012157
:104C600001FA03F3F96901F5006113434B6309E1AC
:104C7000FB6903F500639B6803F48073002B10D17C
:104C8000BB695A01FB69134403F510631B68BA69D9
:104C90005101FA690A4402F5106243F000531360AF
:104CA0000FE0BB695A01FB69134403F510631B68ED
:104CB000BA695101FA690A4402F5106243F080535F
:104CC0001360BB681969BB681A78BB689B6998B2A6
:104CD000FB7900930346F86800F0DEFAD2E0BB6986
:104CE0005A01FB69134403F530631B69BA6951012A
:104CF000FA690A4402F53062DB0CDB041361BB691C
:104D00005A01FB69134403F530631B69BA69510109
:104D1000FA690A4402F5306223F0FF5323F4C0130A
:104D20001361BB689B69002B26D1BB695A01FB69E3
:104D3000134403F530631A69BB68DB68C3F31203DD
:104D4000B9694801F969014401F5306113430B6108
:104D5000BB695A01FB69134403F530631B69BA69E7
:104D60005101FA690A4402F5306243F400231361E9
:104D70003AE000BF0000F81FBB689A69BB68DB68B7
:104D800013445A1EBB68DB68B2FBF3F3FB82BB68BB
:104D9000DB68FA8A03FB02F2BB68DA61BB695A017D
:104DA000FB69134403F530631A69FB8AD904384B55
:104DB0000B40B9694801F969014401F530611343B9
:104DC0000B61BB695A01FB69134403F530631A692F
:104DD000BB68DB69C3F31203B9694801F96901448F
:104DE00001F5306113430B61FB79012B0DD1BB68D9
:104DF0001B69002B09D0BB681969BB695A01FB69A3
:104E0000134403F530630A465A61BB681B79012BD2
:104E100028D1FB6903F500639B6803F48073002BC2
:104E200010D1BB695A01FB69134403F530631B6859
:104E3000BA695101FA690A4402F5306243F000533D
:104E400013600FE0BB695A01FB69134403F530633B
:104E50001B68BA695101FA690A4402F5306243F0ED
:104E600080531360BB695A01FB69134403F5306337
:104E70001B68BA695101FA690A4402F5306243F0CD
:104E800004431360002318462037BD4680BD00BF91
:104E90000000F81F80B487B000AFF860B960134617
:104EA000FB71FB687B61BB681B783B61BB685B780F
:104EB000012B40F0CE80BB689B69002B32D13B694F
:104EC0005A017B69134403F510631B693A69510168
:104ED0007A690A4402F5106223F0FF5323F4C013E9
:104EE00013613B695A017B69134403F510631B6925
:104EF0003A6951017A690A4402F5106243F40023C9
:104F000013613B695A017B69134403F510631B6904
:104F10003A6951017A690A4402F51062DB0CDB043C
:104F200013614EE03B695A017B69134403F510633A
:104F30001B693A6951017A690A4402F51062DB0C77
:104F4000DB0413613B695A017B69134403F5106369
:104F50001B693A6951017A690A4402F5106223F02B
:104F6000FF5323F4C0131361BB689A69BB68DB6805
:104F70009A4203D9BB68DA68BB689A613B695A01F7
:104F80007B69134403F510631B693A6951017A691F
:104F90000A4402F5106243F4002313613B695A018D
:104FA0007B69134403F510631A69BB689B69C3F3FB
:104FB0001203396948017969014401F5106113430D
:104FC0000B61FB79012B1ED1BB685B69002B09D0FB
:104FD0003B695A017B69134403F510631A46BB68A9
:104FE0005B6953613B695A017B69134403F51063A4
:104FF0001B683A6951017A690A4402F5106243F06C
:105000000443136097E03B695A017B69134403F53D
:1050100010631B683A6951017A690A4402F510620B
:1050200043F004431360BB689B69002B00F083804E
:105030007B6903F500635A6BBB681B7803F00F03B1
:10504000012101FA03F3796901F5006113434B6310
:1050500071E03B695A017B69134403F530631B69B6
:105060003A6951017A690A4402F53062DB0CDB04CB
:1050700013613B695A017B69134403F530631B6973
:105080003A6951017A690A4402F5306223F0FF530C
:1050900023F4C0131361BB689B69002B03D0BB686A
:1050A000DA68BB689A61BB68DA68BB68DA613B6939
:1050B0005A017B69134403F530631B693A69510156
:1050C0007A690A4402F5306243F4002313613B69B4
:1050D0005A017B69134403F530631A69BB68DB69C5
:1050E000C3F31203396948017969014401F530615C
:1050F00013430B61FB79012B0DD1BB681B69002B9E
:1051000009D0BB6819693B695A017B69134403F5EF
:1051100030630A465A613B695A017B69134403F5BF
:1051200030631B683A6951017A690A4402F53062BA
:1051300043F004431360002318461C37BD465DF856
:10514000047B704780B487B000AF7860396000237B
:10515000FB600023FB757B683B613B685B78012B40
:105160004AD13B681B785A013B69134403F510632D
:105170001B6803F00043B3F1004F40F086803B68AA
:105180001B785A013B69134403F510631B683A68A6
:10519000127851013A690A4402F5106243F0006343
:1051A00013603B681B785A013B69134403F5106395
:1051B0001B683A68127851013A690A4402F5106294
:1051C00043F080431360FB680133FB60FB6842F2ED
:1051D0001072934202D90123FB7556E03B681B789D
:1051E0005A013B69134403F510631B6803F0004345
:1051F000B3F1004FE7D048E03B681B785A013B69A8
:10520000134403F530631B6803F00043B3F1004F10
:105210003BD13B681B785A013B69134403F530636B
:105220001B683A68127851013A690A4402F5306203
:1052300043F0006313603B681B785A013B691344D9
:1052400003F530631B683A68127851013A690A44E1
:1052500002F5306243F080431360FB680133FB606A
:10526000FB6842F21072934202D90123FB750CE0F5
:105270003B681B785A013B69134403F530631B6894
:1052800003F00043B3F1004FE7D0FB7D18461C3715
:10529000BD465DF8047B704780B489B000AFF8600C
:1052A000B96011461A460B46FB711346BB80FB687A
:1052B0007B61BB68FB6197F82830002B23D1BB884A
:1052C00003339B083B610023BB6118E0FB791A03A1
:1052D0007B69134403F580531A46FB691B6813600E
:1052E000FB690133FB61FB690133FB61FB6901333E
:1052F000FB61FB690133FB61BB690133BB61BA69C7
:105300003B699A42E2D3002318462437BD465DF834
:10531000047B704780B48BB000AFF860B96013466F
:10532000FB80FB68BB61BB687B62FB889B089BB210
:105330007B61FB8803F00303FB8300233B6214E0E3
:10534000BB6903F580531A687B6A1A607B6A013374
:105350007B627B6A01337B627B6A01337B627B6A9F
:1053600001337B623B6A01333B623A6A7B699A4252
:10537000E6D3FB8B002B1ED000233B62BB6903F5F9
:1053800080531A4607F1100312681A603A693B6AA3
:10539000DBB2DB0022FA03F3DAB27B6A1A703B6AF3
:1053A00001333B627B6A01337B62FB8B013BFB83F6
:1053B000FB8B002BEAD17B6A18462C37BD465DF883
:1053C000047B704780B485B000AF786039607B683B
:1053D000FB603B681B78BB603B685B78012B2CD182
:1053E000BB685A01FB68134403F510631B68002B6C
:1053F00012DBBB68002B0FD0BB685A01FB6813445B
:1054000003F510631B68BA685101FA680A4402F593
:10541000106223F080431360BB685A01FB68134499
:1054200003F510631B68BA685101FA680A4402F573
:10543000106243F4001313602BE0BB685A01FB6851
:10544000134403F530631B68002B12DBBB68002B91
:105450000FD0BB685A01FB68134403F530631B6827
:10546000BA685101FA680A4402F5306223F08043B9
:105470001360BB685A01FB68134403F530631B6873
:10548000BA685101FA680A4402F5306243F4001325
:105490001360002318461437BD465DF8047B70473F
:1054A00080B485B000AF786039607B68FB603B6892
:1054B0001B78BB603B685B78012B28D1BB685A0125
:1054C000FB68134403F510631B68BA685101FA685E
:1054D0000A4402F5106223F4001313603B681B7941
:1054E000032B03D03B681B79022B38D1BB685A01D0
:1054F000FB68134403F510631B68BA685101FA682E
:105500000A4402F5106243F08053136027E0BB6841
:105510005A01FB68134403F530631B68BA685101F4
:10552000FA680A4402F5306223F4001313603B6802
:105530001B79032B03D03B681B79022B0FD1BB686F
:105540005A01FB68134403F530631B68BA685101C4
:10555000FA680A4402F5306243F080531360002376
:1055600018461437BD465DF8047B704780B485B09B
:1055700000AF78600B46FB707B68FB60FB6803F54F
:1055800000631B68FA6802F5006223F4FE6313608F
:10559000FB6803F500631A68FB781B0103F4FE63E4
:1055A000F96801F5006113430B60002318461437B6
:1055B000BD465DF8047B704780B485B000AF78606D
:1055C0007B68FB60FB6803F560631B68FA6802F5A3
:1055D000606223F003031360FB6803F500635B68FC
:1055E000FA6802F5006223F00203536000231846B4
:1055F0001437BD465DF8047B704780B485B000AFBA
:1056000078607B68FB60FB6803F560631B68FA6881
:1056100002F5606223F003031360FB6803F5006387
:105620005B68FA6802F5006243F0020353600023EE
:1056300018461437BD465DF8047B704780B485B0CA
:1056400000AF78607B685B69FB607B689B69FA6888
:105650001340FB60FB6818461437BD465DF8047BB9
:10566000704780B485B000AF78607B68FB60FB68F2
:1056700003F500639B69BB60FB6803F50063DB69AE
:10568000BA681340BB60BB681B0C18461437BD4694
:105690005DF8047B704780B485B000AF78607B68AC
:1056A000FB60FB6803F500639B69BB60FB6803F567
:1056B0000063DB69BA681340BB60BB689BB21846E5
:1056C0001437BD465DF8047B704780B485B000AFE9
:1056D00078600B46FB707B68FB60FB785A01FB68C7
:1056E000134403F530639B68BB60FB6803F50063FC
:1056F0005B69BA681340BB60BB6818461437BD4687
:105700005DF8047B704780B487B000AF78600B46CB
:10571000FB707B687B617B6903F500631B693B6100
:105720007B6903F500635B6BFB60FB7803F00F03A1
:10573000FA6822FA03F3DB01DBB23A6913433B61F7
:10574000FB785A017B69134403F510639B683A693F
:105750001340BB60BB6818461C37BD465DF8047B30
:10576000704780B483B000AF78607B685B6903F0FA
:10577000010318460C37BD465DF8047B704780B4C2
:1057800085B000AF78607B68FB60FB6803F5106351
:105790001B68FA6802F5106223F4FF6323F0070325
:1057A0001360FB6803F500635B68FA6802F500624A
:1057B00043F480735360002318461437BD465DF8E8
:1057C000047B704780B487B000AFF8600B467A6006
:1057D000FB72FB687B61FB683C3304331B683B61F5
:1057E0003B69264A93420AD97B6903F530631B68FB
:1057F00003F00043B3F1004F01D1002337E07B6990
:1058000003F530631A46002313617B6903F53063A7
:105810001B697A6902F5306243F4002313617B69E6
:1058200003F530631B697A6902F5306243F01803AF
:1058300013617B6903F530631B697A6902F5306295
:1058400043F0C0431361FB7A012B0FD17B6903F551
:1058500030631A467B6853617B6903F530631B68CC
:105860007A6902F5306243F0802313600023184602
:105870001C37BD465DF8047B704700BF0A30544FAB
:1058800080B485B000AF78600023FB60FB68013313
:10589000FB60FB68134A934201D903231BE07B683A
:1058A0001B69002BF2DA0023FB607B681B6943F065
:1058B00001027B681A61FB680133FB60FB68094ADF
:1058C000934201D9032306E07B681B6903F00103BF
:1058D000012BF0D0002318461437BD465DF8047B39
:1058E000704700BF400D030080B584B000AF786002
:1058F0000B46FB704FF4077002F028FCF860FB6861
:10590000002B09D17B68D3F8D4227B68B032002108
:1059100043F822100223D4E04FF407720021F86804
:1059200003F046FA7B68D3F8D4227B68B032F9687A
:1059300043F822107B68D3F8D4227B68B03253F846
:1059400022207B68C3F8BC227B681B7C002B38D1EB
:105950005E4B19784FF400730222786802F0D3FA94
:105960005A4B1B7803F00F02796813469B001344CF
:105970009B000B44243301221A80554B19784FF4B5
:1059800000730222786802F0BEFA514B1B7803F0D4
:105990000F02796813469B0013449B000B4403F5E8
:1059A000B27301221A804B4B1B7803F00F02796807
:1059B00013469B0013449B000B44263310221A808D
:1059C00035E0424B197840230222786802F09BFAB6
:1059D0003E4B1B7803F00F02796813469B0013447B
:1059E0009B000B44243301221A80394B1978402341
:1059F0000222786802F087FA354B1B7803F00F0219
:105A0000796813469B0013449B000B4403F5B27363
:105A100001221A802F4B1B7803F00F02796813467E
:105A20009B0013449B000B44263310221A80294B01
:105A3000197808230322786802F065FA254B1B7851
:105A400003F00F02796813469B0013449B000B443C
:105A5000243301221A80FB680022C3F804227B68E9
:105A6000D3F8D4327A68B0339B0013445B681B6868
:105A70009847FB680022C3F81422FB680022C3F891
:105A80001822FB68D3F80432002B01D1022318E05E
:105A90007B681B7C002B0AD10D4B1978FB68D3F86F
:105AA00004224FF40073786802F01CFB08E0084BF6
:105AB0001978FB68D3F804224023786802F012FBBF
:105AC000002318461037BD4680BD00BF930000205C
:105AD000940000209500002080B582B000AF78606F
