:020000040800F2
:10000000000002202D240008152200081B220008F1
:1000100021220008272200082D22000800000000ED
:100020000000000000000000000000003322000873
:1000300041220008000000004F2200085D22000855
:100040007D2400087D2400087D2400087D2400080C
:100050007D2400087D2400087D2400087D240008FC
:100060007D2400087D2400087D2400087D240008EC
:100070007D2400087D2400087D2400087D240008DC
:100080007D2400087D2400087D2400087D240008CC
:100090007D2400087D2400087D2400087D240008BC
:1000A0007D2400087D2400087D2400087D240008AC
:1000B0007D2400087D2400087D2400087D2400089C
:1000C0007D2400087D2400087D2400087D2400088C
:1000D0007D2400087D2400087D2400087D2400087C
:1000E0007D2400087D2400087D2400087D2400086C
:1000F0007D2400087D2400087D2400087D2400085C
:100100007D2400087D2400087D2400087D2400084B
:100110007D2400087D2400087D2400087D2400083B
:100120007D2400087D2400087D2400087D2400082B
:100130007D2400087D2400087D2400087D2400081B
:100140007D2400087D2400087D2400086922000821
:100150007D2400087D2400087D2400087D240008FB
:100160007D2400087D2400087D2400087D240008EB
:100170007D2400087D2400087D2400080000000084
:080180007D2400087D24000825
:1001900010B5054C237833B9044B13B10448AFF3C1
:1001A00000800123237010BDD80200200000000051
:1001B00008E0000808B5034B1BB103490348AFF33F
:1001C000008008BD00000000DC02002008E00008FC
:1001D00001F0FF01102A2BDB10F0070F08D010F8F8
:1001E000013B013A8B422DD010F0070F42B3F6D1FC
:1001F000F0B441EA012141EA014122F007047FF015
:1002000000070023F0E80256083C85EA010586EA6B
:10021000010685FA47F5A3FA87F586FA47F6A5FAA7
:1002200087F68EB9EED1F0BC01F0FF0102F00702B3
:1002300032B110F8013B013A83EA010313B1F8D15E
:100240000020704701387047002D06BF354603383F
:10025000073815F0010F07D1013015F4807F02BF78
:10026000013015F4C03F0130F0BC0138704700BFC9
:10027000034613F8012B002AFBD1181A01387047E6
:1002800081F0004102E000BF83F0004330B54FEA47
:1002900041044FEA430594EA050F08BF90EA020FB4
:1002A0001FBF54EA000C55EA020C7FEA645C7FEA47
:1002B000655C00F0E2804FEA5454D4EB5555B8BF6A
:1002C0006D420CDD2C4480EA020281EA030382EADB
:1002D000000083EA010180EA020281EA0303362D6D
:1002E00088BF30BD11F0004F4FEA01314FF4801C40
:1002F0004CEA113102D0404261EB410113F0004F52
:100300004FEA03334CEA133302D0524263EB430308
:1003100094EA050F00F0A780A4F10104D5F1200EA6
:100320000DDB02FA0EFC22FA05F2801841F1000101
:1003300003FA0EF2801843FA05F359410EE0A5F1D5
:1003400020050EF1200E012A03FA0EFC28BF4CF006
:10035000020C43FA05F3C01851EBE37101F00045BC
:1003600007D54FF0000EDCF1000C7EEB00006EEBC9
:100370000101B1F5801F1BD3B1F5001F0CD3490853
:100380005FEA30004FEA3C0C04F101044FEA4452AA
:1003900012F5800F80F09A80BCF1004F08BF5FEA31
:1003A000500C50F1000041EB045141EA050130BD11
:1003B0005FEA4C0C404141EB0101013C28BFB1F523
:1003C000801FE9D291F0000F04BF01460020B1FA6E
:1003D00081F308BF2033A3F10B03B3F120020CDA41
:1003E0000C3208DD02F1140CC2F10C0201FA0CF01F
:1003F00021FA02F10CE002F11402D8BFC2F1200C84
:1004000001FA02F120FA0CFCDCBF41EA0C01904039
:10041000E41AA2BF01EB0451294330BD6FEA040482
:100420001F3C1CDA0C340EDC04F11404C4F120026D
:1004300020FA04F001FA02F340EA030021FA04F37F
:1004400045EA030130BDC4F10C04C4F1200220FAD6
:1004500002F001FA04F340EA0300294630BD21FA14
:1004600004F0294630BD94F0000F83F4801306BFDA
:1004700081F480110134013D4EE77FEA645C18BFCE
:100480007FEA655C29D094EA050F08BF90EA020F65
:1004900005D054EA000C04BF1946104630BD91EA5D
:1004A000030F1EBF0021002030BD5FEA545C05D160
:1004B0004000494128BF41F0004130BD14F580049F
:1004C0003CBF01F5801130BD01F0004545F0FE4113
:1004D00041F470014FF0000030BD7FEA645C1ABF48
:1004E000194610467FEA655C1CBF0B46024650EA7F
:1004F000013406BF52EA033591EA030F41F40021AB
:1005000030BD00BF90F0000F04BF0021704730B530
:100510004FF4806404F132044FF000054FF0000105
:1005200050E700BF90F0000F04BF0021704730B5C6
:100530004FF4806404F1320410F0004548BF40429B
:100540004FF000013EE700BF42004FEAE2014FEAF0
:1005500031014FEA02701FBF12F07F4393F07F4FCB
:1005600081F06051704732F07F4208BF704793F0CE
:100570007F4F04BF41F40021704730B54FF46074E1
:1005800001F0004521F000411CE700BF50EA0102E4
:1005900008BF704730B54FF000050AE050EA01028D
:1005A00008BF704730B511F0004502D5404261EBFD
:1005B00041014FF4806404F132045FEA915C3FF43E
:1005C000D8AE4FF003025FEADC0C18BF03325FEADB
:1005D000DC0C18BF033202EBDC02C2F1200300FA8C
:1005E00003FC20FA02F001FA03FE40EA0E0021FAB1
:1005F00002F11444BDE600BF70B54FF0FF0C4CF49F
:10060000E06C1CEA11541DBF1CEA135594EA0C0F50
:1006100095EA0C0F00F0DEF82C4481EA030621EA8B
:100620004C5123EA4C5350EA013518BF52EA0335C6
:1006300041F4801143F4801338D0A0FB02CE4FF078
:100640000005E1FB02E506F00042E0FB03E54FF0A8
:100650000006E1FB03569CF0000F18BF4EF0010EA0
:10066000A4F1FF04B6F5007F64F5407404D25FEA9C
:100670004E0E6D4146EB060642EAC62141EA55514F
:100680004FEAC52040EA5E504FEACE2EB4F1FD0C91
:1006900088BFBCF5E06F1ED8BEF1004F08BF5FEA0F
:1006A000500E50F1000041EB045170BD06F00046C1
:1006B00046EA010140EA020081EA0301B4EB5C046E
:1006C000C2BFD4EB0C0541EA045170BD41F4801166
:1006D0004FF0000E013C00F3AB8014F1360FDEBF8B
:1006E000002001F0004170BDC4F10004203C35DA67
:1006F0000C341BDC04F11404C4F1200500FA05F3EA
:1007000020FA04F001FA05F240EA020001F000428A
:1007100021F0004110EBD37021FA04F642EB060100
:100720005EEA430E08BF20EAD37070BDC4F10C042A
:10073000C4F1200500FA04F320FA05F001FA04F2EE
:1007400040EA020001F0004110EBD37041F10001DA
:100750005EEA430E08BF20EAD37070BDC4F12005E5
:1007600000FA05F24EEA020E20FA04F301FA05F24D
:1007700043EA020321FA04F001F0004121FA04F2F5
:1007800020EA020000EBD3705EEA430E08BF20EAC5
:10079000D37070BD94F0000F0FD101F000464000FF
:1007A00041EB010111F4801F08BF013CF7D041EA81
:1007B000060195F0000F18BF704703F00046520085
:1007C00043EB030313F4801F08BF013DF7D043EA56
:1007D0000603704794EA0C0F0CEA135518BF95EA0C
:1007E0000C0F0CD050EA410618BF52EA4306D1D193
:1007F00081EA030101F000414FF0000070BD50EAB2
:10080000410606BF1046194652EA430619D094EA3B
:100810000C0F02D150EA013613D195EA0C0F05D125
:1008200052EA03361CBF104619460AD181EA030179
:1008300001F0004141F0FE4141F470014FF0000031
:1008400070BD41F0FE4141F4780170BD70B54FF0CC
:10085000FF0C4CF4E06C1CEA11541DBF1CEA13554C
:1008600094EA0C0F95EA0C0F00F0A7F8A4EB05042E
:1008700081EA030E52EA03354FEA013100F0888025
:100880004FEA03334FF0805545EA131343EA1263EE
:100890004FEA022245EA111545EA10654FEA0026A3
:1008A0000EF000419D4208BF964244F1FD0404F55C
:1008B000407402D25B084FEA3202B61A65EB0305B8
:1008C0005B084FEA32024FF480104FF4002CB6EB75
:1008D000020E75EB030E22BFB61A754640EA0C00F5
:1008E0005B084FEA3202B6EB020E75EB030E22BF35
:1008F000B61A754640EA5C005B084FEA3202B6EB76
:10090000020E75EB030E22BFB61A754640EA9C0034
:100910005B084FEA3202B6EB020E75EB030E22BF04
:10092000B61A754640EADC0055EA060E18D04FEAC2
:10093000051545EA16754FEA06164FEAC30343EA62
:1009400052734FEAC2025FEA1C1CC0D111F4801F2F
:100950000BD141EA00014FF000004FF0004CB6E728
:1009600011F4801F04BF01430020B4F1FD0C88BFC7
:10097000BCF5E06F3FF6AFAEB5EB030C04BFB6EBD2
:10098000020C5FEA500C50F1000041EB045170BDC5
:100990000EF0004E4EEA113114EB5C04C2BFD4EBF2
:1009A0000C0541EA045170BD41F480114FF0000E76
:1009B000013C90E645EA060E8DE60CEA135594EAF2
:1009C0000C0F08BF95EA0C0F3FF43BAF94EA0C0FF5
:1009D0000AD150EA01347FF434AF95EA0C0F7FF46A
:1009E00025AF104619462CE795EA0C0F06D152EABE
:1009F00003353FF4FDAE1046194622E750EA4106A2
:100A000018BF52EA43067FF4C5AE50EA41047FF4B2
:100A10000DAF52EA43057FF4EBAE12E74FF0FF3C17
:100A200006E000BF4FF0010C02E000BF4FF0010CE8
:100A30004DF804CD4FEA410C7FEA6C5C4FEA430C61
:100A400018BF7FEA6C5C1BD001B050EA410C0CBFB0
:100A500052EA430C91EA030F02BF90EA020F002012
:100A6000704710F1000F91EA030F58BF994208BF79
:100A700090422CBFD8176FEAE37040F00100704736
:100A80004FEA410C7FEA6C5C02D150EA013C07D18D
:100A90004FEA430C7FEA6C5CD6D152EA033CD3D0D8
:100AA0005DF8040B704700BF8446104662468C46D2
:100AB0001946634600E000BF01B5FFF7B7FF002805
:100AC00048BF10F1000F01BD4DF808EDFFF7F4FF2E
:100AD0000CBF012000205DF808FB00BF4DF808EDB9
:100AE000FFF7EAFF34BF012000205DF808FB00BFDC
:100AF0004DF808EDFFF7E0FF94BF012000205DF8FE
:100B000008FB00BF4DF808EDFFF7CEFF94BF0120B2
:100B100000205DF808FB00BF4DF808EDFFF7C4FFAB
:100B200034BF012000205DF808FB00BF4FEA410CF4
:100B30007FEA6C5C02D150EA013C0AD14FEA430CD7
:100B40007FEA6C5C02D152EA033C02D14FF0000014
:100B500070474FF0010070474FEA410212F5001252
:100B600015D211D56FF47873B3EB625212D94FEAF4
:100B7000C12343F0004343EA505311F0004F23FADE
:100B800002F018BF404270474FF00000704750EA33
:100B9000013005D111F0004008BF6FF000407047F0
:100BA0004FF00000704700BF4FEA4102B2F1E0434E
:100BB00024BFB3F5001CDCF1FE5C0DD901F0004C44
:100BC0004FEAC0024CEA5070B2F1004F40EB830094
:100BD00008BF20F00100704711F0804F21D113F1C0
:100BE0003872BCBF01F00040704741F480114FEAF9
:100BF0005252C2F11802C2F1200C10FA0CF320FA82
:100C000002F018BF40F001004FEAC1234FEAD3239E
:100C100003FA0CFC40EA0C0023FA02F34FEA430308
:100C2000CCE77FEA625307D150EA01331EBF4FF091
:100C3000FE4040F44000704701F0004040F0FE40AC
:100C400040F40000704700BF53B94AB9002908BFFB
:100C500000281CBF4FF0FF314FF0FF3000F070B99B
:100C6000ADF1080C6DE904CE00F006F8DDF804E003
:100C7000DDE9022304B070472DE9F047089E0D46D8
:100C800004460F46002B4AD18A42944665D9B2FAEF
:100C900082F343B102FA03FCC3F120029F4020FA21
:100CA00002F217439C404FEA1C4E1FFA8CF5B7FB2B
:100CB000FEF1220C0EFB117742EA074201FB05F020
:100CC00090420AD91CEB020201F1FF3780F01C812F
:100CD000904240F2198102396244121AA4B2B2FB66
:100CE000FEF00EFB102244EA024400FB05F5A5428B
:100CF0000AD91CEB040400F1FF3280F00781A54201
:100D000040F204816444023840EA0140641B00213F
:100D10001EB1DC400023C6E90043BDE8F0878B42EA
:100D200008D9002E00F0ED800021C6E90005084634
:100D3000BDE8F087B3FA83F1002949D1AB4202D371
:100D4000824200F2F880841A65EB03020120174604
:100D5000002EE2D0C6E90047DFE702B9FFDEB2FAB3
:100D600082F3002B40F090808A1A4FEA1C471FFA4A
:100D70008CFE0121B2FBF7F507FB1520220C42EA9D
:100D800000420EFB05F0904208D91CEB020205F16F
:100D9000FF3802D2904200F2CB804546121AA4B22C
:100DA000B2FBF7F007FB102244EA02440EFB00FE00
:100DB000A64508D91CEB040400F1FF3202D2A64577
:100DC00000F2BB801046A4EB0E0440EA05409FE70A
:100DD000C1F120078B4022FA07FC4CEA030C05FA0C
:100DE00001F420FA07F3FD404FEA1C492343B5FB09
:100DF000F9F81FFA8CFE09FB18551C0C44EA05444F
:100E000008FB0EF5A54202FA01F200FA01F00BD937
:100E10001CEB040408F1FF3A80F08880A54240F200
:100E20008580A8F102086444641B9DB2B4FBF9F309
:100E300009FB134445EA044403FB0EFEA64508D90A
:100E40001CEB040403F1FF356CD2A6456AD9023BC2
:100E5000644443EA0843A3FB0295A4EB0E04AC42AE
:100E6000C846AE4656D353D056B1B0EB080264EB39
:100E70000E0404FA07F7CA40CC401743C6E90074D1
:100E800018460021BDE8F087C3F1200102FA03FCF7
:100E900020FA01F225FA01F19D402A434FEA1C474E
:100EA0001FFA8CFEB1FBF7F007FB1015110C41EA9D
:100EB000054100FB0EF58D4204FA03F408D91CEB42
:100EC000010100F1FF382FD28D422DD90238614443
:100ED000491B92B2B1FBF7F507FB151142EA01423B
:100EE00005FB0EF1914208D91CEB020205F1FF3817
:100EF00016D2914214D9023D6244521A45EA004189
:100F000038E73146304608E73946E6E61046FBE664
:100F10004845A9D2B9EB020865EB0C0E013BA3E7EB
:100F20004546EAE72B4694E74046D1E7D0467BE7C3
:100F3000023D624432E708460AE76444023842E769
:100F4000704700BF80B590B000AF0023FB874FF023
:100F50000003BB624FF00003FB6207F114030022A1
:100F60001A605A609A60DA601A617F4A07F10C03CE
:100F700092E803001860043319704FF400637B613A
:100F80001123BB6107F114031946784801F020FCD6
:100F900000224FF40061754801F0CEFD142001F0ED
:100FA000E1FA01224FF40061704801F0C5FD4FF4F1
:100FB00000637B610023BB6107F1140319466B4892
:100FC00001F006FC10E0FB8F0133FB87FB8F42F240
:100FD0001072934208D907F1300307F1280292E812
:100FE000030083E80300B2E04FF400615F4801F0C2
:100FF0008BFD0346012BE6D00023FB8710E0FB8F1F
:101000000133FB87FB8F42F21072934208D907F13C
:10101000300307F1280292E8030083E8030096E01A
:101020004FF40061514801F06FFD0346012BE6D1FA
:101030000023FB8710E0FB8F0133FB87FB8F42F21D
:101040001072934208D907F1300307F1280292E8A1
:10105000030083E803007AE04FF40061434801F0A5
:1010600053FD0346012BE6D0002387F83D3047E0CF
:10107000072387F83C303AE000237B8700233B8737
:1010800002E03B8F01333B874FF40061374801F0AA
:101090003BFD0346012BF4D102E07B8F01337B87BC
:1010A0004FF40061314801F02FFD0346012BF4D0CD
:1010B0007A8F3B8F9A4215D997F83D3040333B44A5
:1010C00013F8343C5AB297F83C30012101FA03F38B
:1010D0005BB213435AB297F83D30D2B240333B442F
:1010E00003F8342C97F83C30013B87F83C3097F8F4
:1010F0003C30FF2BC0D197F83D30013387F83D30AD
:1011000097F83D30042BB3D93A7B7B7B1344DAB29A
:10111000BB7B1344DAB2FB7B1344DAB23B7C9A42CA
:101120000DD13B7B07EE903AF8EE677AC7ED0A7A6D
:10113000BB7B07EE903AF8EE677AC7ED0B7A07F1C2
:10114000300307F1280292E8030083E803003A6BBA
:101150007B6B07EE102A07EE903AB0EE470AF0EEEE
:10116000670A4037BD4680BD20E00008000C024001
:1011700080B584B000AF0346FB80194B5B68013338
:10118000184AA2FB03239B09FB6001F0DFF9034629
:101190004FF47A7203FB02F2114B9968FB68B1FBC2
:1011A000F3F3D31A03F57A73BB6000BF01F0CEF9F5
:1011B00003464FF47A7203FB02F2094B9968FB680D
:1011C000B1FBF3F3D21ABB68D31A03F57A72FB882A
:1011D0009A42EBD300BF00BF1037BD4680BD00BFB1
:1011E00010E000E0D34D621080B582B000AF03463E
:1011F000FB71FB7903F00803DBB21A464FF40041A0
:101200001B4801F099FCFB7903F00403DBB21A469A
:101210004FF48041164801F08FFCFB7903F0020384
:10122000DBB21A464FF40051114801F085FCFB79FE
:1012300003F00103DBB21A464FF480510C4801F071
:101240007BFC01224FF40061094801F075FC32205B
:10125000FFF78EFF00224FF40061054801F06CFC9F
:101260003220FFF785FF00BF0837BD4680BD00BFB5
:101270000010024080B582B000AF0346FB7100222F
:1012800080210A4801F058FCFB791B09DBB21846A3
:10129000FFF7AAFFFB7903F00F03DBB21846FFF755
:1012A000A3FF00BF0837BD4680BD00BF001002404D
:1012B00080B584B000AF03460A46FB711346BB718C
:1012C0004FF48043BB81BB79012B01D90023BB7153
:1012D0000C4AFB79D3700B4ABB791371BB7910337D
:1012E0003B4413F8042CFB791344DBB25BB263F08C
:1012F0007F035BB2DBB21846FFF7BCFF00BF1037BD
:10130000BD4680BDF402002080B500AF084B1B78BD
:1013100043F00403DAB2064B1A70054B1B7843F016
:101320000803DBB21846FFF7A5FF00BF80BD00BF72
:10133000F402002080B582B000AF03463A60FB7132
:101340000B46BB71BA79FB7911461846FFF7B0FF1F
:101350004FE02C4BDB780F2B10D92A4B0022DA7090
:10136000284B1B790133DAB2264B1A71254BDB78F7
:10137000244A127911461846FFF79AFF3B681B78FA
:101380000A2B0ED11F4B1B790133DAB21D4B1A7198
:101390001C4BDB781B4A127911461846FFF788FF71
:1013A00024E03B681B780D2B06D1164B1B791946A0
:1013B0000020FFF77DFF19E001228021124801F093
:1013C000BBFB3B681B781B09DBB21846FFF70CFF21
:1013D0003B681B7803F00F03DBB21846FFF704FFEE
:1013E000084BDB780133DAB2064BDA703B68013325
:1013F0003B603B681B78002BABD100BF00BF0837B8
:10140000BD4680BDF40200200010024080B500AF50
:101410000120FFF72FFF022001F0A4F800BF80BDDC
:1014200080B500AF02E0012001F09CF801F08EF8D9
:101430000346C72BF7D9204B0022DA701E4B00223F
:101440001A711D4B08225A700320FFF7CDFE14209D
:1014500001F088F80320FFF7C7FE142001F082F89E
:101460000320FFF7C1FE142001F07CF80220FFF7F3
:10147000BBFE142001F076F80F4B5B7843F020039D
:10148000DBB21846FFF7F6FE0B4B04221A70FFF78B
:101490003BFFFFF7BBFF084B02229A70064B9B787D
:1014A00043F00403DBB21846FFF7E4FE142001F01A
:1014B00059F800BF80BD00BFF402002080B586B09F
:1014C00004AF4FF47A73029301230193FB1D009341
:1014D00001237522D021234801F086FDFB79682B7A
:1014E0003BD10023BB714FF47A7302930123019324
:1014F000BB1D009301236B22D0211A4801F07AFC16
:101500000723BB714FF47A73029301230193BB1D30
:10151000009301231922D021124801F06BFC002313
:10152000BB714FF47A73029301230193BB1D0093A7
:1015300001231C22D0210B4801F05CFC0023BB716D
:101540004FF47A73029301230193BB1D009301238F
:101550001B22D021034801F04DFC00BF0837BD46D7
:1015600080BD00BF38030020B0B592B004AF4FF487
:101570007A7302930623019307F13003009301234A
:101580003B22D021404801F02FFD034687F8373039
:1015900097F83730002B16D03C4B3C1D1D460FCD25
:1015A0000FC40FCD0FC495E8070084E807003B1D6A
:1015B0001846FEF75DFE03469AB23B1D11461846DB
:1015C00007F068FE5CE097F830301B021AB297F81B
:1015D00031301BB213431AB22D4B1A8097F83230B8
:1015E0001B021AB297F833301BB213431AB2294BBD
:1015F0001A8097F834301B021AB297F835301BB2B4
:1016000013431AB2244B1A80214BB3F90030184609
:10161000FEF788FF4FF00002204BFFF717F9024654
:101620000B4610461946FFF7BFFA03461C4A1360E3
:10163000184BB3F900301846FEF774FF4FF0000264
:10164000164BFFF703F902460B4610461946FFF703
:10165000ABFA0346134A13600F4BB3F90030184638
:10166000FEF760FF4FF000020C4BFFF7EFF8024669
:101670000B4610461946FFF797FA03460A4A1360CD
:101680003837BD46B0BD00BF3803002028E0000851
:10169000080300200A0300200C0300200000D040B3
:1016A00014030020180300201C0300200000000089
:1016B000B0B594B004AF4FF47A730293062301934C
:1016C00007F12C03009301234322D021AE4801F0FF
:1016D0008BFC034687F83F3097F83F30002B16D03D
:1016E000AA4B3C1D1D460FCD0FC40FCD0FC495E86E
:1016F000030084E803003B1D1846FEF7B9FD0346CE
:101700009AB23B1D1146184607F0C4FD2EE197F82A
:101710002C301B021AB297F82D301BB213431AB2A9
:101720009B4B1A8097F82E301B021AB297F82F3075
:101730001BB213431AB2974B1A8097F830301B0232
:101740001AB297F831301BB213431AB2924B1A8077
:101750008F4BB3F900301846FEF7E4FE86A3D3E9B9
:101760000023FFF773F802460B4610461946FFF7B1
:101770001BFA0346894A1360864BB3F900301846BA
:10178000FEF7D0FE7CA3D3E90023FFF75FF8024603
:101790000B4610461946FFF707FA0346804A1360C6
:1017A0007D4BB3F900301846FEF7BCFE72A3D3E9B7
:1017B0000023FFF74BF802460B4610461946FFF789
:1017C000F3F90346774A1360774B1B681846FEF718
:1017D000BBFE04460D46754B1B681846FEF7B4FE6B
:1017E00002460B4643EC112B45EC104B0BF054F822
:1017F00051EC100B4FF000026D4BFEF7FDFE024660
:101800000B46104619465EA3D3E90023FFF71EF8E6
:1018100002460B4610461946FFF7C6F90346654ACD
:101820001360654BD3ED007AF1EE677A17EE903ACC
:101830001846FEF789FE04460D465B4B93ED007A91
:10184000594BD3ED007A27EE277A584BD3ED006A37
:10185000564BD3ED007A66EEA77A77EE277A17EE2D
:10186000900AFEF771FE02460B4643EC102B0BF07C
:1018700015F8B0EE407AF0EE607AB0EE471AF0EE6E
:10188000671A45EC104B0BF007F851EC100B4FF0BA
:101890000002474BFEF7DAFF02460B461046194698
:1018A00037A3D3E90023FEF7A7FE02460B461046F6
:1018B0001946FFF779F903463E4A5360394B93EDD9
:1018C000007ADFED3E6AC7EE267AC7ED0E7A394A16
:1018D000BB6B9360D7ED0E7AFDEEE77A17EE903A88
:1018E000002BB8BF5B42002B40DDB86BFEF72CFE2F
:1018F00023A3D3E90023FEF77FFE02460B461046E2
:1019000019464FF000022A4BFEF7A0FF02460B4695
:1019100043EC172BB0EE470AF0EE670A0AF0ECFF33
:1019200053EC102B10461946FFF73EF903467B6334
:10193000204B93ED007A1F4BD3ED016AD7ED0D7A62
:1019400066EEA77A77EE677A1A4BC3ED007A194BE9
:1019500093ED017A174BD3ED006AD7ED0D7A66EE61
:10196000A77A77EE277A134BC3ED017A4037BD464D
:10197000B0BD00BFAFF30080000000000060604019
:10198000182D4454FB2109403803002054E000087E
:101990000E0300201003002012030020200300206B
:1019A0002403002028030020180300201C0300202B
:1019B00000806640FC020020140300200000034366
:1019C0002DE9B04398B004AF87ED050AC7ED040ACE
:1019D00087ED031AC7ED021A87ED012AC7ED002A29
:1019E00097ED047AD7ED057A77EE277A17EE900A0D
:1019F000FEF7AAFD58A3D3E90023FEF7FDFD02463A
:101A00000B4614461D46564B1B681846FEF79CFDB8
:101A10004FA3D3E90023FEF7EFFD02460B46204615
:101A20002946FEF733FC02460B4610461946FFF7DF
:101A3000BBF803464B4A136097ED027AD7ED037A61
:101A400077EE277A17EE900AFEF77EFD42A3D3E9E0
:101A50000023FEF7D1FD02460B4614461D46424BBD
:101A60001B681846FEF770FD39A3D3E90023FEF783
:101A7000C3FD02460B4620462946FEF707FC0246F8
:101A80000B4610461946FFF78FF80346354A536058
:101A900097ED007AD7ED017A77EE277A17EE900A64
:101AA000FEF752FD2CA3D3E90023FEF7A5FD024665
:101AB0000B4614461D462D4B1B681846FEF744FD89
:101AC00023A3D3E90023FEF797FD02460B462046E9
:101AD0002946FEF7DBFB02460B4610461946FFF788
:101AE00063F803461F4A93601E4B1B681846FEF7B7
:101AF0002BFD804689461B4B5B681846FEF724FD8C
:101B000004460D46174B9B681846FEF71DFD02461E
:101B10000B4607F11C00CDE90223CDE90045424602
:101B20004B46134908F05CFD07F11C031846FEF70D
:101B30009FFB03469AB207F11C031146184607F0B3
:101B4000A9FB00BF5037BD46BDE8B083AFF30080AE
:101B50008014AE47E17A943F5C8FC2F5285CEF3F7A
:101B60002C030020FC02002030030020340300205E
:101B70007CE0000880B584B000AF87ED030AC7EDB4
:101B8000020A87ED011AD7ED037ABAEE047AF4EE71
:101B9000C77AF1EE10FA06D501224FF480412848A9
:101BA00000F0CAFF05E000224FF48041244800F015
:101BB000C3FFD7ED037AB2EE047AF4EEC77AF1EE02
:101BC00010FA06DD01224FF480511D4800F0B4FFE9
:101BD00005E000224FF48051194800F0ADFFD7ED29
:101BE000027AB2EE047AF4EEC77AF1EE10FA06DD6C
:101BF00001224FF40041124800F09EFF05E0002250
:101C00004FF400410E4800F097FFD7ED027ABAEE8C
:101C1000047AF4EEC77AF1EE10FA06D501224FF4F9
:101C20000051074800F088FF05E000224FF4005102
:101C3000034800F081FF00BF1037BD4680BD00BFE4
:101C4000000C024000000000B0B590B002AF00F000
:101C500017FC00F04BF900F0E1F900F0B1F907F0E2
:101C60005BFAFFF72BFCFFF7DBFBFFF77DFCFFF7D1
:101C70001FFD914B1B681846FEF766FC04460D4697
:101C80008E4B1B681846FEF75FFC02460B4643EC82
:101C9000112B45EC104B0AF0FFFD51EC100B4FF0EF
:101CA0000002874BFEF7A8FC02460B461046194679
:101CB0007FA3D3E90023FEF7C9FD02460B46104679
:101CC0001946FEF771FF03467E4A13607E4BD3ED43
:101CD000007AF1EE677A17EE903A1846FEF734FC78
:101CE00004460D46744B93ED007A734BD3ED007AA6
:101CF00027EE277A714BD3ED006A704BD3ED007A53
:101D000066EEA77A77EE277A17EE900AFEF71CFCAC
:101D100002460B4643EC102B0AF0C0FDB0EE407AB1
:101D2000F0EE607AB0EE471AF0EE671A45EC104B11
:101D30000AF0B2FD51EC100B4FF00002604BFEF7C1
:101D40005BFC02460B461046194659A3D3E9002313
:101D5000FEF77CFD02460B4610461946FEF724FFAF
:101D60000346584A5360574B4FF000029A60554B58
:101D7000D3ED007A554B93ED007A524BD3ED016AC7
:101D8000534B93ED006A4F4BD3ED025A514B93EDF9
:101D9000005AF0EE452AB0EE652AF0EE461AB0EE93
:101DA000661AF0EE470AB0EE670AFFF709FE454BE8
:101DB000D3ED007A434B93ED017A424BD3ED026AA7
:101DC000B0EE661AF0EE470AB0EE670AFFF7D2FEF1
:101DD0003C4B1B68404A13603A4B5B683F4A1360B8
:101DE000384B9B683E4A1360FFF7ACF8B0EE407A80
:101DF000F0EE607A87ED007AC7ED017A4FF00003CC
:101E00007B634FF000033B63D7ED017AF5EE407A38
:101E1000F1EE10FA48D0D7ED007AF5EE407AF1EE07
:101E200010FA41D0D7ED017A97ED0D7AB4EE677ACA
:101E3000F1EE10FA08D1D7ED007A97ED0C7AB4EEF6
:101E4000677AF1EE10FA2FD07B681846FEF77CFB1C
:101E500002460B4607F10800CDE90023214A142170
:101E600008F08AFB3B681846FEF76EFB02460B46FD
:101E700007F11C00CDE900231B4A142108F07CFB6C
:101E8000FFF7C4FA07F108031A4600210020FFF704
:101E900051FA07F11C031A4601210020FFF74AFA04
:101EA0007B687B633B683B63642000F05BFBDCE6A4
:101EB000182D4454FB210940180300201C03002066
:101EC00000806640FC020020140300202003002054
:101ED00024030020280300202C03002030030020CE
:101EE0003403002090E00008A4E0000880B594B01E
:101EF00000AF07F1200330220021184608F0D3FB81
:101F000007F10C0300221A605A609A60DA601A61C5
:101F10000023BB60284B1B6C274A43F0805313649B
:101F2000254B1B6C03F08053BB60BB6800237B60B8
:101F3000224B1B68214A43F4804313601F4B1B68EC
:101F400003F480437B607B6801233B624FF4803362
:101F50007B620223BB634FF48003FB6308233B6473
:101F60004FF4A8737B640223BB640723FB6407F16F
:101F70002003184603F036F80346002B01D000F08A
:101F8000D3F80F23FB6002233B6100237B614FF4F6
:101F9000A053BB614FF48053FB6107F10C03052193
:101FA000184603F097FA0346002B01D000F0BCF866
:101FB00000BF5037BD4680BD003802400070004071
:101FC00080B500AF124B134A1A60114B124A5A6087
:101FD0000F4B00229A600E4B0022DA600C4B4FF43C
:101FE00080421A610A4B00225A61094B00229A6111
:101FF000074B0022DA61064B00221A62044800F007
:10200000B5FD0346002B01D000F08EF800BF80BD67
:102010003803002000540040801A060080B58AB0C2
:1020200000AF07F1140300221A605A609A60DA6068
:102030001A6100233B61394B1B6B384A43F0800324
:102040001363364B1B6B03F080033B613B6900233A
:10205000FB60324B1B6B314A43F0100313632F4B71
:102060001B6B03F01003FB60FB680023BB602B4B72
:102070001B6B2A4A43F008031363284B1B6B03F0C6
:102080000803BB60BB6800237B60244B1B6B234AA7
:1020900043F001031363214B1B6B03F001037B60CF
:1020A0007B6800233B601D4B1B6B1C4A43F0020303
:1020B00013631A4B1B6B03F002033B603B68002267
:1020C0004FF68041164800F037FD00224FF478416A
:1020D000144800F031FD4FF680437B610123BB6162
:1020E0000023FB6100233B6207F1140319460C48EF
:1020F00000F06EFB4FF478437B610123BB6100234A
:10210000FB6100233B6207F114031946054800F008
:102110005FFB00BF2837BD4680BD00BF00380240CE
:1021200000100240000C024080B400AF72B600BF45
:10213000FEE7000080B582B000AF00237B60104B4B
:102140005B6C0F4A43F4804353640D4B5B6C03F4A8
:1021500080437B607B6800233B60094B1B6C084A13
:1021600043F080531364064B1B6C03F080533B60B9
:102170003B68072000F0EAFA00BF0837BD4680BD83
:102180000038024080B58AB000AF786007F11403D0
:1021900000221A605A609A60DA601A617B681B68D4
:1021A000194A93422BD100233B61184B1B6B174AF2
:1021B00043F002031363154B1B6B03F002033B61F7
:1021C0003B69C0237B611223BB610023FB610323B6
:1021D0003B6204237B6207F1140319460C4800F0AC
:1021E000F7FA0023FB60094B1B6C084A43F4001309
:1021F0001364064B1B6C03F40013FB60FB6800BF09
:102200002837BD4680BD00BF005400400038024062
:102210000004024080B400AFFEE780B400AFFEE7E8
:1022200080B400AFFEE780B400AFFEE780B400AF3B
:10223000FEE780B400AF00BFBD465DF8047B704789
:1022400080B400AF00BFBD465DF8047B704780B42A
:1022500000AF00BFBD465DF8047B704780B500AF9E
:1022600000F060F900BF80BD80B500AF024801F00A
:102270008CFD00BF80BD00BF7418002080B400AF8B
:1022800001231846BD465DF8047B704780B582B0D7
:1022900000AF7860396008F059FA034616221A60D8
:1022A0004FF0FF3318460837BD4680BD80B582B079
:1022B00000AF78604FF0FF317868FFF7E7FFFEE787
:1022C00080B586B000AFF860B9607A6000237B61AA
:1022D0000AE0AFF300800146BB685A1CBA60CAB27C
:1022E0001A707B6901337B617A697B689A42F0DB03
:1022F0007B6818461837BD4680BD80B586B000AFF4
:10230000F860B9607A6000237B6109E0BB685A1C01
:10231000BA601B781846AFF300807B6901337B619C
:102320007A697B689A42F1DB7B6818461837BD46AC
:1023300080BD80B483B000AF78604FF0FF331846A3
:102340000C37BD465DF8047B704780B483B000AFA6
:10235000786039603B684FF400525A600023184699
:102360000C37BD465DF8047B704780B483B000AF86
:102370007860012318460C37BD465DF8047B704732
:1023800080B485B000AFF860B9607A600023184669
:102390001437BD465DF8047B7047000080B586B0F9
:1023A00000AF7860144A154BD31A7B617B693B619F
:1023B000134B1B68002B02D1114B124A1A60104BB1
:1023C0001A687B6813443A699A4207D208F0BEF94A
:1023D00003460C221A604FF0FF3309E0084B1B68DC
:1023E000FB60074B1A687B681344054A1360FB685F
:1023F00018461837BD4680BD0000022000040000CA
:102400008C030020F020002080B400AF064BD3F8EE
:102410008830054A43F47003C2F8883000BFBD46D7
:102420005DF8047B704700BF00ED00E0DFF834D0BA
:102430000D480E490E4A002302E0D458C45004331C
:10244000C4188C42F9D30B4A0B4C002301E01360F3
:102450000432A242FBD3FFF7D7FF08F07DF9FFF764
:10246000F3FB70470000022000000020D80200208B
:10247000E0E60008D8020020EC200020FEE7000083
:1024800080B500AF0E4B1B680D4A43F40073136018
:102490000B4B1B680A4A43F480631360084B1B68AC
:1024A000074A43F480731360032000F04FF90020C3
:1024B00000F008F8FFF73EFE0023184680BD00BF7D
:1024C000003C024080B582B000AF7860124B1A68C1
:1024D000124B1B7819464FF47A73B3FBF1F3B2FB3E
:1024E000F3F3184600F067F90346002B01D00123EF
:1024F0000EE07B680F2B0AD8002279684FF0FF307E
:1025000000F02FF9064A7B681360002300E00123E6
:1025100018460837BD4680BD000000200800002096
:102520000400002080B400AF064B1B781A46064B0F
:102530001B681344044A136000BFBD465DF8047B6A
:10254000704700BF080000209003002080B400AF57
:10255000034B1B681846BD465DF8047B704700BFFF
:102560009003002080B584B000AF7860FFF7EEFFE5
:10257000B8607B68FB60FB68B3F1FF3F05D00A4B96
:102580001B781A46FB681344FB6000BFFFF7DEFFB1
:102590000246BB68D31AFA689A42F7D800BF00BF58
:1025A0001037BD4680BD00BF0800002080B485B054
:1025B00000AF78607B6803F00703FB600C4BDB68BF
:1025C000BB60BA684FF6FF031340BB60FB681A029A
:1025D000BB68134343F0BF6343F40033BB60044A5A
:1025E000BB68D36000BF1437BD465DF8047B7047FD
:1025F00000ED00E080B400AF044BDB681B0A03F081
:1026000007031846BD465DF8047B704700ED00E007
:1026100080B483B000AF0346FB7197F90730002BFD
:102620000BDBFB7903F01F02074997F907305B09C1
:10263000012000FA02F241F8232000BF0C37BD460A
:102640005DF8047B704700BF00E100E080B483B018
:1026500000AF03463960FB7197F90730002B0ADBA6
:102660003B68DAB20C4997F907301201D2B20B4439
:1026700083F800230AE03B68DAB20849FB7903F0EB
:102680000F03043B1201D2B20B441A7600BF0C3781
:10269000BD465DF8047B704700E100E000ED00E01E
:1026A00080B489B000AFF860B9607A60FB6803F06D
:1026B0000703FB61FB69C3F10703042B28BF042355
:1026C000BB61FB690433062B02D9FB69033B00E0C5
:1026D00000237B614FF0FF32BB6902FA03F3DA4358
:1026E000BB681A407B699A404FF0FF317B6901FA61
:1026F00003F3D9437B680B40134318462437BD4688
:102700005DF8047B7047000080B582B000AF786050
:102710007B68013BB3F1807F01D301230FE00A4ABC
:102720007B68013B53600F214FF0FF30FFF78EFFB6
:10273000054B00229A60044B07221A6000231846BA
:102740000837BD4680BD00BF10E000E080B582B014
:1027500000AF78607868FFF729FF00BF0837BD46F3
:1027600080BD80B586B000AF0346B9607A60FB7368
:1027700000237B61FFF73EFF78617A68B96878696A
:10278000FFF78EFF024697F90F3011461846FFF704
:102790005DFF00BF1837BD4680BD80B582B000AF79
:1027A0000346FB7197F907301846FFF731FF00BF6A
:1027B0000837BD4680BD80B582B000AF78607868CC
:1027C000FFF7A2FF034618460837BD4680BD00004C
:1027D00080B489B000AF7860396000237B6100234A
:1027E0003B610023BB610023FB616BE10122FB69BC
:1027F00002FA03F37B613B681B687A6913403B6113
:102800003A697B699A4240F05A813B685B6803F001
:102810000303012B05D03B685B6803F00303022B25
:1028200030D17B689B68BB61FB695B00032202FAC5
:1028300003F3DB43BA691340BB613B68DA68FB69A9
:102840005B0002FA03F3BA691343BB617B68BA69A0
:102850009A607B685B68BB610122FB6902FA03F343
:10286000DB43BA691340BB613B685B681B0903F03B
:102870000102FB6902FA03F3BA691343BB617B6887
:10288000BA695A603B685B6803F00303032B17D0F7
:102890007B68DB68BB61FB695B00032202FA03F320
:1028A000DB43BA691340BB613B689A68FB695B0014
:1028B00002FA03F3BA691343BB617B68BA69DA6051
:1028C0003B685B6803F00303022B23D1FB69DA0842
:1028D0007B68083253F82230BB61FB6903F00703C1
:1028E0009B000F2202FA03F3DB43BA691340BB617A
:1028F0003B681A69FB6903F007039B0002FA03F3C4
:10290000BA691343BB61FB69DA087B680832B969AD
:1029100043F822107B681B68BB61FB695B000322E4
:1029200002FA03F3DB43BA691340BB613B685B689F
:1029300003F00302FB695B0002FA03F3BA69134375
:10294000BB617B68BA691A603B685B6803F440331B
:10295000002B00F0B4800023FB60604B5B6C5F4A8F
:1029600043F4804353645D4B5B6C03F48043FB6032
:10297000FB685B4AFB699B08023352F82330BB615A
:10298000FB6903F003039B000F2202FA03F3DB430E
:10299000BA691340BB617B68524A93422BD07B6873
:1029A000514A934225D07B68504A93421FD07B689E
:1029B0004F4A934219D07B684E4A934213D07B68AA
:1029C0004D4A93420DD07B684C4A934207D07B68B6
:1029D0004B4A934201D107230EE008230CE0062363
:1029E0000AE0052308E0042306E0032304E00223B1
:1029F00002E0012300E00023FA6902F003029200E2
:102A00009340BA691343BB613549FB699B080233A4
:102A1000BA6941F823203B4B9B68BB613B69DB43B0
:102A2000BA691340BB613B685B6803F48013002BF9
:102A300003D0BA693B691343BB61324ABB699360F7
:102A4000304BDB68BB613B69DB43BA691340BB6158
:102A50003B685B6803F40013002B03D0BA693B6941
:102A60001343BB61274ABB69D360264B5B68BB61DC
:102A70003B69DB43BA691340BB613B685B6803F4A5
:102A80000033002B03D0BA693B691343BB611D4A75
:102A9000BB6953601B4B1B68BB613B69DB43BA6975
:102AA0001340BB613B685B6803F48033002B03D0A9
:102AB000BA693B691343BB61124ABB691360FB6986
:102AC0000133FB61FB690F2B7FF690AE00BF00BFA7
:102AD0002437BD465DF8047B704700BF00380240D4
:102AE000003801400000024000040240000802409B
:102AF000000C024000100240001402400018024086
:102B0000001C0240003C014080B485B000AF7860FA
:102B10000B467B807B681A697B881340002B02D0B0
:102B20000123FB7301E00023FB73FB7B1846143782
:102B3000BD465DF8047B704780B483B000AF786019
:102B40000B467B8013467B707B78002B03D07A8802
:102B50007B689A6103E07B881A047B689A6100BFF6
:102B60000C37BD465DF8047B7047000080B584B02B
:102B700000AF78607B68002B01D101232BE17B68DB
:102B800093F83D30DBB2002B06D17B68002283F83E
:102B90003C207868FFF7F6FA7B68242283F83D2012
:102BA0007B681B681A687B681B6822F001021A6048
:102BB0007B681B681A687B681B6842F400421A60D5
:102BC0007B681B681A687B681B6822F400421A60E5
:102BD00002F078FEF8607B685B68814A934207D810
:102BE000FB68804A934294BF01230023DBB206E0D6
:102BF000FB687D4A934294BF01230023DBB2002B84
:102C000001D00123E7E0FB68784AA2FB03239B0C79
:102C1000BB607B681B685B6823F03F017B681B68B7
:102C2000BA680A435A607B681B681B6A23F03F013D
:102C30007B685B686A4A934202D8BB68013309E04B
:102C4000BB684FF4967202FB03F3694AA2FB0323AD
:102C50009B0901337A6812680B4313627B681B6817
:102C6000DB6923F44F4222F0FF027B685B685C491A
:102C70008B4219D8FB68591E7B685B685B00B1FB0F
:102C8000F3F3591C40F6FC730B40002B0AD0FB6891
:102C9000591E7B685B685B00B1FBF3F30133C3F340
:102CA0000B0351E004234FE07B689B68002B11D19C
:102CB000FB68581E7B6859680B465B000B44B0FBF1
:102CC000F3F30133C3F30B03002B0CBF01230023E9
:102CD000DBB212E0FB68581E7B6859680B469B000C
:102CE0000B4499000B44B0FBF3F30133C3F30B0324
:102CF000002B0CBF01230023DBB2002B01D00123EA
:102D000022E07B689B68002B0ED1FB68581E7B6815
:102D100059680B465B000B44B0FBF3F30133C3F37C
:102D20000B0343F400430FE0FB68581E7B685968AF
:102D30000B469B000B4499000B44B0FBF3F30133AB
:102D4000C3F30B0343F44043796809681343CB6131
:102D50007B681B681B6823F0C0017B68DA697B68AD
:102D60001B6A1A437B681B680A431A607B681B68EE
:102D70009B6823F4034323F0FF037A6811697A68A0
:102D8000D26811437A6812680B4393607B681B68B2
:102D9000DB6823F0FF017B685A697B689B691A43F3
:102DA0007B681B680A43DA607B681B681A687B686B
:102DB0001B6842F001021A607B6800221A647B687B
:102DC000202283F83D207B6800221A637B68002262
:102DD00083F83E20002318461037BD4680BD00BF53
:102DE000A08601007F841E00FF083D0083DE1B4398
:102DF000D34D621080B588B002AFF8600846114626
:102E00001A4603467B810B463B811346FB80FFF746
:102E10009DFB7861FB6893F83D30DBB2202B40F0DE
:102E2000D9807B690093192301226D49F86800F06D
:102E30007FFC0346002B01D00223CCE0FB6893F813
:102E40003C30012B01D10223C5E0FB68012283F84D
:102E50003C20FB681B681B6803F00103012B07D0B3
:102E6000FB681B681A68FB681B6842F001021A6065
:102E7000FB681B681A68FB681B6822F400621A6012
:102E8000FB68212283F83D20FB68402283F83E2026
:102E9000FB6800221A64FB683A6A5A62FB68BA8CC3
:102EA0005A85FB685B8D9AB2FB681A85FB684D4AB0
:102EB000DA62F8883A8979897B690193BB6A009361
:102EC0000346F86800F0B6FA0346002B52D00123FF
:102ED00081E07A69B96AF86800F000FD0346002BCA
:102EE0000DD0FB681B6C042B07D1FB681B681A68AC
:102EF000FB681B6842F400721A6001236BE0FB68F8
:102F00005B6A1A78FB681B681A61FB685B6A5A1C6B
:102F1000FB685A62FB681B8D013B9AB2FB681A85FD
:102F2000FB685B8D9BB2013B9AB2FB685A85FB68DC
:102F30001B685B6903F00403042B1BD1FB681B8D2A
:102F4000002B17D0FB685B6A1A78FB681B681A6154
:102F5000FB685B6A5A1CFB685A62FB681B8D013B6D
:102F60009AB2FB681A85FB685B8D9BB2013B9AB2F3
:102F7000FB685A85FB681B8D002BAAD17A69B96A58
:102F8000F86800F0ECFC0346002B0DD0FB681B6CCE
:102F9000042B07D1FB681B681A68FB681B6842F4A6
:102FA00000721A60012316E0FB681B681A68FB6850
:102FB0001B6842F400721A60FB68202283F83D20EF
:102FC000FB68002283F83E20FB68002283F83C2047
:102FD000002300E0022318461837BD4680BD00BF1D
:102FE000020010000000FFFF80B58CB002AFF86057
:102FF000084611461A4603467B810B463B81134621
:10300000FB80FFF7A3FA7862FB6893F83D30DBB2F0
:10301000202B40F008827B6A0093192301227B4910
:10302000F86800F085FB0346002B01D00223FBE18A
:10303000FB6893F83C30012B01D10223F4E1FB68DB
:10304000012283F83C20FB681B681B6803F0010326
:10305000012B07D0FB681B681A68FB681B6842F0ED
:1030600001021A60FB681B681A68FB681B6822F47F
:1030700000621A60FB68222283F83D20FB68402230
:1030800083F83E20FB6800221A64FB683A6B5A62A0
:10309000FB68BA8E5A85FB685B8D9AB2FB681A850D
:1030A000FB685B4ADA62F8883A8979897B6A01931E
:1030B000BB6B00930346F86800F052FA0346002BFE
:1030C00001D00123B0E1FB681B8D002B13D100233D
:1030D0003B62FB681B685B693B62FB681B689B6922
:1030E0003B623B6AFB681B681A68FB681B6842F41A
:1030F00000721A6084E1FB681B8D012B1BD1FB68F9
:103100001B681A68FB681B6822F480621A6000233F
:10311000FB61FB681B685B69FB61FB681B689B6963
:10312000FB61FB69FB681B681A68FB681B6842F45B
:1031300000721A6064E1FB681B8D022B1BD1FB68D7
:103140001B681A68FB681B6822F480621A60FB68BF
:103150001B681A68FB681B6842F400621A6000234F
:10316000BB61FB681B685B69BB61FB681B689B6993
:10317000BB61BB6944E100237B61FB681B685B6941
:103180007B61FB681B689B697B617B6938E1FB683D
:103190001B8D032B00F2F180FB681B8D012B23D1CB
:1031A0007A6AB96BF86800F01BFC0346002B01D06B
:1031B000012339E1FB681B681A69FB685B6AD2B2BC
:1031C0001A70FB685B6A5A1CFB685A62FB681B8DAD
:1031D000013B9AB2FB681A85FB685B8D9BB2013B91
:1031E0009AB2FB685A850BE1FB681B8D022B4ED10E
:1031F0007B6A0093BB6B00220649F86800F098FADE
:103200000346002B08D001230EE100BF020010008E
:103210000000FFFF04000100FB681B681A68FB68E0
:103220001B6842F400721A60FB681B681A69FB682D
:103230005B6AD2B21A70FB685B6A5A1CFB685A62FE
:10324000FB681B8D013B9AB2FB681A85FB685B8D9E
:103250009BB2013B9AB2FB685A85FB681B681A69EE
:10326000FB685B6AD2B21A70FB685B6A5A1CFB6827
:103270005A62FB681B8D013B9AB2FB681A85FB689A
:103280005B8D9BB2013B9AB2FB685A85B8E07B6AC2
:103290000093BB6B00226649F86800F049FA0346C8
:1032A000002B01D00123BFE0FB681B681A68FB6894
:1032B0001B6822F480621A60FB681B681A69FB684D
:1032C0005B6AD2B21A70FB685B6A5A1CFB685A626E
:1032D000FB681B8D013B9AB2FB681A85FB685B8D0E
:1032E0009BB2013B9AB2FB685A857B6A0093BB6B29
:1032F00000224F49F86800F01BFA0346002B01D06A
:10330000012391E0FB681B681A68FB681B6842F4A4
:1033100000721A60FB681B681A69FB685B6AD2B2AC
:103320001A70FB685B6A5A1CFB685A62FB681B8D4B
:10333000013B9AB2FB681A85FB685B8D9BB2013B2F
:103340009AB2FB685A85FB681B681A69FB685B6A5E
:10335000D2B21A70FB685B6A5A1CFB685A62FB683F
:103360001B8D013B9AB2FB681A85FB685B8D9BB293
:10337000013B9AB2FB685A8542E07A6AB96BF868F9
:1033800000F02EFB0346002B01D001234CE0FB682C
:103390001B681A69FB685B6AD2B21A70FB685B6AC9
:1033A0005A1CFB685A62FB681B8D013B9AB2FB6892
:1033B0001A85FB685B8D9BB2013B9AB2FB685A850C
:1033C000FB681B685B6903F00403042B18D1FB68DE
:1033D0001B681A69FB685B6AD2B21A70FB685B6A89
:1033E0005A1CFB685A62FB681B8D013B9AB2FB6852
:1033F0001A85FB685B8D9BB2013B9AB2FB685A85CC
:10340000FB681B8D002B7FF4C2AEFB68202283F883
:103410003D20FB68002283F83E20FB68002283F8F1
:103420003C20002300E0022318462837BD4680BD1B
:103430000400010080B588B002AFF860084611466C
:103440001A4603467B810B463B811346FB80FB6893
:103450001B681A68FB681B6842F480721A607B6AFA
:1034600000933B6A00224FF00111F86800F060F908
:103470000346002B0DD0FB681B681B6803F48073A8
:10348000B3F5807F03D1FB684FF400721A64032305
:103490005FE07B89DBB21A46FB681B6802F0FE0224
:1034A0001A617B6A3A6A2D49F86800F098F9034678
:1034B000002B01D001234CE000237B61FB681B68DB
:1034C0005B697B61FB681B689B697B617B697A6ACE
:1034D000396AF86800F002FA0346002B0DD0FB6849
:1034E0001B6C042B07D1FB681B681A68FB681B6800
:1034F00042F400721A6001232BE0FB88012B05D1F6
:103500003B89DAB2FB681B681A6121E03B891B0A20
:103510009BB2DAB2FB681B681A617A6A396AF8688A
:1035200000F0DCF90346002B0DD0FB681B6C042B6C
:1035300007D1FB681B681A68FB681B6842F40072BD
:103540001A60012305E03B89DAB2FB681B681A6147
:10355000002318461837BD4680BD00BF0200010099
:1035600080B588B002AFF860084611461A46034697
:103570007B810B463B811346FB80FB681B681A6806
:10358000FB681B6842F480621A60FB681B681A685B
:10359000FB681B6842F480721A607B6A00933B6A86
:1035A00000224FF00111F86800F0C2F80346002B2A
:1035B0000DD0FB681B681B6803F48073B3F5807F34
:1035C00003D1FB684FF400721A640323AAE07B89DD
:1035D000DBB21A46FB681B6802F0FE021A617B6AC6
:1035E0003A6A5249F86800F0FAF80346002B01D015
:1035F000012397E000237B61FB681B685B697B61AB
:10360000FB681B689B697B617B697A6A396AF86829
:1036100000F064F90346002B0DD0FB681B6C042BF3
:1036200007D1FB681B681A68FB681B6842F40072CC
:103630001A60012376E0FB88012B05D13B89DAB2C1
:10364000FB681B681A6121E03B891B0A9BB2DAB256
:10365000FB681B681A617A6A396AF86800F03EF9FB
:103660000346002B0DD0FB681B6C042B07D1FB68B5
:103670001B681A68FB681B6842F400721A60012319
:1036800050E03B89DAB2FB681B681A617A6A396AD2
:10369000F86800F023F90346002B0DD0FB681B6C83
:1036A000042B07D1FB681B681A68FB681B6842F48F
:1036B00000721A60012335E0FB681B681A68FB681A
:1036C0001B6842F480721A607B6A00933B6A002296
:1036D0004FF00111F86800F02BF80346002B0DD0D5
:1036E000FB681B681B6803F48073B3F5807F03D10C
:1036F000FB684FF400721A64032313E07B89DBB28A
:1037000043F00103DAB2FB681B681A617B6A3A6A0C
:103710000649F86800F063F80346002B01D0012346
:1037200000E0002318461837BD4680BD02000100A6
:1037300080B584B000AFF860B9603B601346FB71A0
:1037400025E03B68B3F1FF3F21D0FEF7FFFE0246C4
:10375000BB69D31A3A689A4202D33B68002B16D150
:10376000FB6800221A63FB68202283F83D20FB6877
:10377000002283F83E20FB681B6C43F02002FB68AC
:103780001A64FB68002283F83C20012323E0BB6815
:103790001B0CDBB2012B0DD1FB681B685B69DA43A4
:1037A000BB6813409BB2002B0CBF01230023DBB28C
:1037B0001A460CE0FB681B689B69DA43BB68134040
:1037C0009BB2002B0CBF01230023DBB21A46FB790E
:1037D0009A42B6D0002318461037BD4680BD80B54A
:1037E00084B000AFF860B9607A603B6051E0FB687C
:1037F0001B685B6903F48063B3F5806F23D1FB68BA
:103800001B681A68FB681B6842F400721A60FB6848
:103810001B686FF480625A61FB6800221A63FB68C0
:10382000202283F83D20FB68002283F83E20FB68BD
:103830001B6C43F00402FB681A64FB68002283F8E7
:103840003C20012346E07B68B3F1FF3F21D0FEF727
:103850007DFE02463B68D31A7A689A4202D37B689F
:10386000002B16D1FB6800221A63FB68202283F824
:103870003D20FB68002283F83E20FB681B6C43F070
:103880002002FB681A64FB68002283F83C200123B5
:1038900020E0BB681B0CDBB2012B0CD1FB681B6862
:1038A0005B69DA43BB6813409BB2002B14BF012352
:1038B0000023DBB20BE0FB681B689B69DA43BB6843
:1038C00013409BB2002B14BF01230023DBB2002B5B
:1038D0008DD1002318461037BD4680BD80B584B019
:1038E00000AFF860B9607A602DE0F86800F0CEF8BB
:1038F0000346002B01D001232DE0BB68B3F1FF3F4D
:1039000021D0FEF723FE02467B68D31ABA689A429A
:1039100002D3BB68002B16D1FB6800221A63FB6838
:10392000202283F83D20FB68002283F83E20FB68BC
:103930001B6C43F02002FB681A64FB68002283F8CA
:103940003C20012307E0FB681B685B6903F08003F0
:10395000802BCAD1002318461037BD4680BD80B5E4
:1039600084B000AFF860B9607A602DE0F86800F0CC
:103970008DF80346002B01D001232DE0BB68B3F185
:10398000FF3F21D0FEF7E2FD02467B68D31ABA68FA
:103990009A4202D3BB68002B16D1FB6800221A633F
:1039A000FB68202283F83D20FB68002283F83E203C
:1039B000FB681B6C43F02002FB681A64FB68002262
:1039C00083F83C20012307E0FB681B685B6903F078
:1039D0000403042BCAD1002318461037BD4680BD0E
:1039E00080B584B000AFF860B9607A6042E0FB68EF
:1039F0001B685B6903F01003102B19D1FB681B686F
:103A00006FF010025A61FB6800221A63FB682022E3
:103A100083F83D20FB68002283F83E20FB681A6C87
:103A2000FB681A64FB68002283F83C20012329E02C
:103A3000FEF78CFD02467B68D31ABA689A4202D31D
:103A4000BB68002B16D1FB6800221A63FB6820229A
:103A500083F83D20FB68002283F83E20FB681B6C46
:103A600043F02002FB681A64FB68002283F83C20C4
:103A7000012307E0FB681B685B6903F04003402BF0
:103A8000B5D1002318461037BD4680BD80B483B041
:103A900000AF78607B681B685B6903F48063B3F5F3
:103AA000806F1BD17B681B686FF480625A617B68F2
:103AB00000221A637B68202283F83D207B68002265
:103AC00083F83E207B681B6C43F004027B681A6419
:103AD0007B68002283F83C20012300E00023184685
:103AE0000C37BD465DF8047B7047F0B58FB00AAF68
:103AF00078607B68002B01D101230FE17B681B6894
:103B0000BB607B6893F8BD34DBB2002B06D17B68C9
:103B1000002283F8BC24786805F004FD7B6803224A
:103B200083F8BD24BB68DB6B03F48073002B02D1E8
:103B30007B6800221A617B681B68184601F0EBFF66
:103B40007B681B683B607E686D4606F110040FCCF5
:103B50000FC50FCC0FC594E8030085E80300331DA3
:103B60000ECB386801F0C2FE0346002B05D07B68FF
:103B7000022283F8BD240123D0E07B681B6800216A
:103B8000184601F0D9FF0023FB734AE0FA7B7968FD
:103B90001346DB0013449B000B443D3301221A7093
:103BA000FA7B79681346DB0013449B000B443C33DB
:103BB000FA7B1A70FA7BFB7B98B279681346DB00BC
:103BC00013449B000B44443302461A80FA7B796805
:103BD0001346DB0013449B000B44403300221A7051
:103BE000FA7B79681346DB0013449B000B4448338F
:103BF00000221A60FA7B79681346DB0013449B00AD
:103C00000B444C3300221A60FA7B79681346DB00C0
:103C100013449B000B44543300221A60FB7B013396
:103C2000FB73FA7B7B685B689A42AFD30023FB731C
:103C300044E0FA7B79681346DB0013449B000B4495
:103C400003F27D2300221A70FA7B79681346DB00A9
:103C500013449B000B4403F51F73FA7B1A70FA7B25
:103C600079681346DB0013449B000B4403F5207373
:103C700000221A70FA7B79681346DB0013449B001C
:103C80000B4403F5227300221A60FA7B796813460D
:103C9000DB0013449B000B4403F5237300221A60DE
:103CA000FA7B79681346DB0013449B000B4403F551
:103CB000257300221A60FB7B0133FB73FA7B7B6860
:103CC0005B689A42B5D37B681B683B607E686D4633
:103CD00006F110040FCC0FC50FCC0FC594E80300FC
:103CE00085E80300331D0ECB386801F071FF0346F1
:103CF000002B05D07B68022283F8BD2401230DE050
:103D00007B68002283F838207B68012283F8BD2479
:103D10007B681B68184603F0C0F800231846143768
:103D2000BD46F0BD80B584B000AF78607B681B688D
:103D3000FB607B6893F8BC34012B01D1022320E0A7
:103D40007B68012283F8BC247B689B6A012B09D124
:103D50007B689B69012B05D0FB689B6B43F4803229
:103D6000FB689A637B681B68184601F0C3FE7B689A
:103D70001B68184603F070F87B68002283F8BC24A7
:103D8000002318461037BD4680BD90B58DB000AFFA
:103D900078607B681B683B623B6AFB617B681B68E1
:103DA000184603F02EF90346002B40F08A847B6806
:103DB0001B68184603F092F80346002B00F080843D
:103DC000FB6903F500639B681B0AC3F30D027B6864
:103DD000C3F8FC247B681B68184603F07FF8034691
:103DE00003F00203022B07D17B681B685A697B68CA
:103DF0001B6802F002025A617B681B68184603F0D8
:103E00006DF8034603F01003102B61D17B681B682B
:103E10009A697B681B6822F010029A613B6A1B6AF0
:103E2000BB61BB6903F00F021346DB0013449B0028
:103E300003F51E737A68134404337B61BB695B0C22
:103E400003F00F03022B24D1BA6947F6F073134035
:103E5000002B35D07B691969BB691B099BB2C3F381
:103E60000A039BB21A46386A02F0A4FE7B691A69FB
:103E7000BB691B09C3F30A031A447B691A617B6996
:103E80001A6ABB691B09C3F30A031A447B691A62E5
:103E900016E0BB695B0C03F00F03062B10D17B68A7
:103EA00003F2C44308221946386A02F083FE7B6994
:103EB0001A6ABB691B09C3F30A031A447B691A62B5
:103EC0007B681B689A697B681B6842F010029A61E4
:103ED0007B681B68184603F001F8034603F40023CF
:103EE000B3F5002F40F0A78000237B627B681B683E
:103EF000184603F006F8B86299E0BB6A03F00103C4
:103F0000002B00F08E807B681B687A6AD2B2114663
:103F1000184603F02AF838613B6903F00103002BCF
:103F20000CD07B6A5A01FB69134403F530631A46CF
:103F300001239360796A786800F0C2FE3B6903F060
:103F40000803002B0CD07B6A5A01FB69134403F56C
:103F500030631A4608239360796A786800F098FF06
:103F60003B6903F01003002B08D07B6A5A01FB6900
:103F7000134403F530631A46102393603B6903F042
:103F80000203002B30D03B6A5B6903F08003802B77
:103F900009D1FB6903F500635B68FA6902F5006209
:103FA00043F4806353607A6A1346DB0013449B003A
:103FB00003F51E737A68134404337B617B69DB78F5
:103FC000012B08D17B690022DA707B6ADBB21946CB
:103FD000786805F0ADFB7B6A5A01FB69134403F571
:103FE00030631A46022393603B6903F02003002BE1
:103FF00008D07B6A5A01FB69134403F530631A4603
:10400000202393603B6903F40053002B09D07B6AA3
:104010005A01FB69134403F530631A464FF4005309
:1040200093607B6A01337B62BB6A5B08BB62BB6ADD
:10403000002B7FF462AF7B681B68184602F04EFFCE
:10404000034603F48023B3F5802F40F0DB807B68C8
:104050001B68184602F06FFFB86200237B62CDE058
:10406000BB6A03F00103002B00F0C2807B681B6871
:104070007A6AD2B21146184602F095FF38613B6960
:1040800003F00103002B57D07B6A03F00F030122DA
:1040900002FA03F3FB60FB6903F500635A6BFB68EC
:1040A000DB43F96901F5006113404B637B6A5A01F8
:1040B000FB69134403F510631A46012393607B6880
:1040C0001B69012B32D179687A6A1346DB001344ED
:1040D0009B000B444C33196878687A6A1346DB00FE
:1040E00013449B00034448331B68194478687A6A78
:1040F0001346DB0013449B0003444C3319607B6A76
:10410000002B13D179687A6A1346DB0013449B00B5
:104110000B4454331B68002B08D17B6818687B68FC
:1041200003F2C4431A46012102F09CFF7B6ADBB212
:104130001946786805F077FA3B6903F00803002B0D
:1041400008D07B6A5A01FB69134403F510631A46D1
:10415000082393603B6903F01003002B08D07B6AAF
:104160005A01FB69134403F510631A461023936048
:104170003B6903F04003002B08D07B6A5A01FB69BE
:10418000134403F510631A46402393603B6903F020
:104190000203002B23D0796A386A01F07DFE7A6A27
:1041A0001346DB0013449B0038337A68134404330E
:1041B0007B617B69DB78012B08D17B690022DA7097
:1041C0007B6ADBB21946786805F0C4FA7B6A5A014B
:1041D000FB69134403F510631A46022393603B699D
:1041E00003F08003002B03D0796A786800F0DBFCD1
:1041F0007B6A01337B62BB6A5B08BB62BB6A002BD4
:104200007FF42EAF7B681B68184602F067FE0346FA
:1042100003F00043B3F1004F22D1FB6903F50063C3
:104220005B68FA6902F5006223F0010353607B6862
:1042300093F8F434012B08D17B68002283F8F4242E
:104240000021786800F0C2FE02E0786805F062FAAA
:104250007B681B685A697B681B6802F000425A61E0
:104260007B681B68184602F039FE034603F40063BE
:10427000B3F5006F12D1FB6903F500639B6803F08F
:104280000103012B02D1786805F01EFA7B681B68D8
:104290005A697B681B6802F400625A617B681B687C
:1042A000184602F01BFE034603F48053B3F5805F0B
:1042B00040F0B780FB6903F500635B68FA6902F5BB
:1042C000006223F0010353607B681B6810211846CD
:1042D00001F0E2FD0023FB6246E0FB6A5A01FB6944
:1042E000134403F510631A464FF67F339360FB6A5D
:1042F0005A01FB69134403F510631B68FA6A510104
:10430000FA690A4402F5106223F400131360FB6A91
:104310005A01FB69134403F530631A464FF67F33A5
:104320009360FB6A5A01FB69134403F530631B6811
:10433000FA6A5101FA690A4402F5306223F4001363
:104340001360FB6A5A01FB69134403F530631B6871
:10435000FA6A5101FA690A4402F5306243F00063D7
:104360001360FB6A0133FB627B685B68FA6A9A42FE
:10437000B3D3FB6903F50063DB69FA6902F50062F8
:1043800043F00113D3617B681B6B002B16D0FB69D4
:1043900003F50063D3F88430FA6902F5006243F054
:1043A0000B03C2F88430FB6903F500635B6CFA69A8
:1043B00002F5006243F00B03536415E0FB6903F55B
:1043C00000635B69FA6902F5006243F4005343F04D
:1043D0002B035361FB6903F500631B69FA6902F55E
:1043E000006243F00B031361FB6903F500631B6874
:1043F000FA6902F5006223F4FE6313607B681868B3
:104400007B681B69D9B27B6803F2C4431A4602F089
:1044100029FE7B681B685A697B681B6802F480521E
:104420005A617B681B68184602F058FD034603F486
:104430000053B3F5005F24D17B681B68184602F077
:10444000EEFD7B681B68184601F0A3FD03461A4683
:104450007B68DA607B681C6801F028FA01467B689B
:10446000DB68DBB21A46204601F0A2FA786805F054
:1044700002F97B681B685A697B681B6802F400526A
:104480005A617B681B68184602F028FD034603F05A
:104490000803082B0AD1786805F0DFF87B681B68F1
:1044A0005A697B681B6802F008025A617B681B68C6
:1044B000184602F013FD034603F08003802B22D13F
:1044C0003B6A9B6923F080023B6A9A6101237B620D
:1044D00014E079687A6A1346DB0013449B000B44AE
:1044E00003F27F231B78012B05D17B6ADBB21946CF
:1044F000786800F027FB7B6A01337B627B685B682E
:104500007A6A9A42E5D37B681B68184602F0E6FC9B
:10451000034603F48013B3F5801F3BD101237B6274
:104520002BE07B6A5A01FB69134403F510631B6897
:10453000BB6179687A6A1346DB0013449B000B4425
:1045400040331B78012B15D1BB69002B12DA796837
:104550007A6A1346DB0013449B000B443F3301226D
:104560001A707B6ADBB263F07F03DBB219467868AE
:1045700000F0E8FA7B6A01337B627B685B687A6AE9
:104580009A42CED37B681B685A697B681B6802F429
:1045900080125A617B681B68184602F09FFC034634
:1045A00003F40013B3F5001F55D101237B6245E0EE
:1045B0007B6A5A01FB69134403F530631B68BB61D6
:1045C00079687A6A1346DB0013449B000B4403F5B9
:1045D00020731B78012B2ED1BB69002B2BDABB6912
:1045E00003F480327B68D3F8FC3403F001039A4271
:1045F00021D179687A6A1346DB0013449B000B448F
:1046000003F27F2301221A703B6A9B6943F0800208
:104610003B6A9A613B6A5B6903F08003002B0AD115
:10462000FB6903F500635B68FA6902F5006243F415
:104630000073536007E07B6A01337B627B685B68D1
:104640007A6A9A42B4D37B681B685A697B681B6894
:1046500002F400125A617B681B68184602F03EFCA7
:10466000034603F08043B3F1804F0AD1786805F028
:1046700083F87B681B685A697B681B6802F080427C
:104680005A617B681B68184602F028FC034603F059
:104690000403042B15D17B681B685B68BB61BB6995
:1046A00003F00403002B02D0786805F073F87B68F0
:1046B0001B6859687B681B68BA690A435A6000E046
:1046C00000BF3437BD4690BD80B582B000AF786082
:1046D0000B46FB707B6893F8BC34012B01D102239D
:1046E00013E07B68012283F8BC247B68FA7883F8A6
:1046F00038207B681B68FA781146184602F086FB62
:104700007B68002283F8BC24002318460837BD4686
:1047100080BD80B584B000AF7860084611461A4667
:104720000346FB700B463B801346BB700023FB72B5
:1047300097F90330002B0FDAFB7803F00F021346D2
:10474000DB0013449B0038337A6813440433FB6066
:10475000FB6801225A700FE0FB7803F00F0213464A
:10476000DB0013449B0003F51E737A681344043383
:10477000FB60FB6800225A70FB7803F00F03DAB28B
:10478000FB681A703A88FB68DA60FB68BA781A71BD
:10479000FB685B78002B04D0FB681B789AB2FB683F
:1047A0001A81BB78022B02D1FB6800225A717B6808
:1047B00093F8BC34012B01D102230EE07B68012267
:1047C00083F8BC247B681B68F968184601F006FC76
:1047D0007B68002283F8BC24FB7A18461037BD465C
:1047E00080BD80B584B000AF78600B46FB7097F950
:1047F0000330002B0FDAFB7803F00F021346DB00C7
:1048000013449B0038337A6813440433FB60FB681D
:1048100001225A700FE0FB7803F00F021346DB0011
:1048200013449B0003F51E737A6813440433FB6042
:10483000FB6800225A70FB7803F00F03DAB2FB68C2
:104840001A707B6893F8BC34012B01D102230EE06F
:104850007B68012283F8BC247B681B68F9681846D2
:1048600001F044FC7B68002283F8BC240023184636
:104870001037BD4680BD80B586B000AFF8607A6065
:104880003B600B46FB72FB7A03F00F021346DB0022
:1048900013449B0003F51E73FA68134404337B61D1
:1048A0007B697A681A617B693A689A617B69002240
:1048B0001A627B6900225A70FB7A03F00F03DAB2A6
:1048C0007B691A70FB681B69012B02D17A687B69CE
:1048D0005A61FB7A03F00F03002B09D1FB681868BB
:1048E000FB681B69DBB21A46796901F023FF08E017
:1048F000FB681868FB681B69DBB21A46796901F02E
:10490000D1FC002318461837BD4680BD80B483B063
:1049100000AF78600B46FB70FB7803F00F027968FC
:104920001346DB0013449B000B4403F527731B68FD
:1049300018460C37BD465DF8047B704780B586B0DD
:1049400000AFF8607A603B600B46FB72FB7A03F0C5
:104950000F021346DB0013449B003833FA681344FC
:1049600004337B617B697A681A617B693A689A6172
:104970007B6900221A627B6901225A70FB7A03F07C
:104980000F03DAB27B691A70FB681B69012B02D135
:104990007A687B695A61FB7A03F00F03002B09D117
:1049A000FB681868FB681B69DBB21A46796901F07D
:1049B000C1FE08E0FB681868FB681B69DBB21A4699
:1049C000796901F06FFC002318461837BD4680BD99
:1049D00080B584B000AF78600B46FB70FB7803F0C5
:1049E0000F027B685B689A4201D9012350E097F976
:1049F0000330002B0FDAFB7803F00F021346DB00C5
:104A000013449B0038337A6813440433FB60FB681B
:104A100001225A700DE0FA781346DB0013449B0024
:104A200003F51E737A6813440433FB60FB680022AD
:104A30005A70FB6801229A70FB7803F00F03DAB218
:104A4000FB681A707B6893F8BC34012B01D10223F8
:104A50001EE07B68012283F8BC247B681B68F96830
:104A6000184602F0FFF8FB7803F00F03002B0AD181
:104A70007B6818687B681B69D9B27B6803F2C44302
:104A80001A4602F0EFFA7B68002283F8BC24002368
:104A900018461037BD4680BD80B584B000AF786041
:104AA0000B46FB70FB7803F00F027B685B689A4251
:104AB00001D9012342E097F90330002B0FDAFB788C
:104AC00003F00F021346DB0013449B0038337A686F
:104AD00013440433FB60FB6801225A700FE0FB783B
:104AE00003F00F021346DB0013449B0003F51E7313
:104AF0007A6813440433FB60FB6800225A70FB6839
:104B000000229A70FB7803F00F03DAB2FB681A7088
:104B10007B6893F8BC34012B01D102230EE07B6843
:104B2000012283F8BC247B681B68F968184602F0F0
:104B300007F97B68002283F8BC240023184610374D
:104B4000BD4680BD80B584B000AF78600B46FB7079
:104B500097F90330002B0CDAFB7803F00F021346B1
:104B6000DB0013449B0038337A6813440433FB6042
:104B70000CE0FB7803F00F021346DB0013449B00AC
:104B800003F51E737A6813440433FB607B681B686B
:104B9000F968184601F026FF0346FB72FB7A1846B7
:104BA0001037BD4680BD80B58AB002AF78603960ED
:104BB0007B681B687B617B693B613A681346DB005D
:104BC00013449B0038337A6813440433FB60FB685A
:104BD0001A6AFB689B699A4201D901236CE0FB6861
:104BE0009A69FB681B6AD31AFB61FB68DB68FA6988
:104BF0009A4202D9FB68DB68FB61FB6903339B08BF
:104C0000BB612BE0FB689A69FB681B6AD31AFB61E6
:104C1000FB68DB68FA699A4202D9FB68DB68FB61D2
:104C2000FB6903339B08BB61FB6819693B68DAB217
:104C3000FB6998B27B681B69DBB200930346786915
:104C400001F07AFFFB681A69FB691A44FB681A6174
:104C5000FB681A6AFB691A44FB681A623B685A01CE
:104C60003B69134403F510639B699BB2BA699A428E
:104C700009D8FB681A6AFB689B699A4203D2FB68F1
:104C80009B69002BBED1FB689A69FB681B6A9A423C
:104C900011D83B6803F00F03012202FA03F3BB6053
:104CA0003B6903F500635A6BBB68DB43396901F567
:104CB000006113404B63002318462037BD4680BD7A
:104CC00080B588B000AF786039607B681B68FB6195
:104CD000FB69BB61FB693C3304331B687B613B6848
:104CE0005A01BB69134403F530639B683B617B68E1
:104CF0001B69012B7BD13B6903F00803002B15D006
:104D00007B69614A934240F2B9803B6903F40043F6
:104D1000002B00F0B3803B685A01BB69134403F5D4
:104D200030631A464FF400439360A7E03B6903F0F9
:104D30002003002B09D03B685A01BB69134403F5DB
:104D400030631A462023936098E03B6903F0280300
:104D5000002B40F093807B694B4A93420FD93B690B
:104D600003F40043002B0AD03B685A01BB6913448B
:104D700003F530631A464FF4004393607EE03A68CF
:104D80001346DB0013449B0003F51E737A6813443B
:104D90000433FB60FB68DA693B685901BB690B446B
:104DA00003F530631B69C3F31203D21AFB681A625E
:104DB0003B68002B14D1FB689B69002B09D17B68F1
:104DC00018687B6803F2C4431A46012102F04AF9CD
:104DD00006E0FB681A69FB681B6A1A44FB681A61E3
:104DE0003B68DBB21946786804F002FC46E07B6958
:104DF000264A934224D13B6903F40043002B0AD096
:104E00003B685A01BB69134403F530631A464FF4FB
:104E10000043936032E03B6903F02003002B08D08D
:104E20003B685A01BB69134403F530631A462023DB
:104E300093603B68DBB21946786804F0D9FB1DE04B
:104E40003B68002B14D179683A681346DB001344A1
:104E50009B000B4403F525731B68002B08D17B686E
:104E600018687B6803F2C4431A46002102F0FAF87E
:104E70003B68DBB21946786804F0BAFB0023184699
:104E80002037BD4680BD00BF0A30544F0A31544F11
:104E900080B586B000AF786039607B681B687B6145
:104EA0007B693B617B693C3304331B68FB603B6877
:104EB0005A013B69134403F530639B68BB60FB6890
:104EC000154A93420ED9BB6803F40043002B09D066
:104ED0003B685A013B69134403F530631A464FF4AB
:104EE00000439360786804F071FBFB680A4A9342C0
:104EF0000CD97B681B69012B08D17B6818687B681B
:104F000003F2C4431A46012102F0ACF8002318460C
:104F10001837BD4680BD00BF0A30544F80B485B0FD
:104F200000AF78600B46FB7013463B807B681B68C4
:104F30005B6ABB60FB78002B07D13B8819047B6858
:104F40001B68BA680A439A6228E07B681B689B6A00
:104F50001B0CBA681344BB600023FB730DE07B6835
:104F60001A68FB7B40339B0013445B681B0CBA68D8
:104F70001344BB60FB7B0133FB73FA7BFB78013B83
:104F80009A42ECD33B8818047B681968FB78013B94
:104F9000BA68024340339B000B445A600023184612
:104FA0001437BD465DF8047B704780B483B000AF12
:104FB00078600B467B807B681B687A885A62002386
:104FC00018460C37BD465DF8047B704780B483B04B
:104FD00000AF78600B46FB7000BF0C37BD465DF834
:104FE000047B704780B586B000AF78607B68002B8B
:104FF00001D1012367E27B681B6803F00103002BEA
:1050000075D0884B9B6803F00C03042B0CD0854BA8
:105010009B6803F00C03082B12D1824B5B6803F4EE
:105020008003B3F5800F0BD17E4B1B6803F4003374
:10503000002B5BD07B685B68002B57D1012342E2D9
:105040007B685B68B3F5803F06D1764B1B68754A79
:1050500043F4803313601DE07B685B68B3F5A02FD9
:105060000CD1704B1B686F4A43F4802313606D4B67
:105070001B686C4A43F4803313600BE0694B1B6878
:10508000684A23F480331360664B1B68654A23F437
:10509000802313607B685B68002B13D0FDF756FA02
:1050A000386108E0FDF752FA02463B69D31A642BD7
:1050B00001D9032307E25B4B1B6803F40033002B89
:1050C000F0D014E0FDF742FA386108E0FDF73EFA4F
:1050D00002463B69D31A642B01D90323F3E1514BF8
:1050E0001B6803F40033002BF0D100E000BF7B68A5
:1050F0001B6803F00203002B63D04A4B9B6803F04C
:105100000C03002B0BD0474B9B6803F00C03082BC0
:105110001CD1444B5B6803F48003002B16D1414B38
:105120001B6803F00203002B05D07B68DB68012BB2
:1051300001D00123C7E13B4B1B6823F0F8027B68D9
:105140001B69DB00374913430B603AE07B68DB687F
:10515000002B20D0344B01221A60FDF7F7F938619B
:1051600008E0FDF7F3F902463B69D31A022B01D997
:105170000323A8E12B4B1B6803F00203002BF0D0A4
:10518000284B1B6823F0F8027B681B69DB0025496C
:1051900013430B6015E0244B00221A60FDF7D6F98B
:1051A000386108E0FDF7D2F902463B69D31A022BB9
:1051B00001D9032387E11B4B1B6803F00203002B7B
:1051C000F0D17B681B6803F00803002B36D07B68A6
:1051D0005B69002B16D0154B01221A60FDF7B6F95A
:1051E000386108E0FDF7B2F902463B69D31A022B99
:1051F00001D9032367E10B4B5B6F03F00203002B24
:10520000F0D01BE0094B00221A60FDF79FF93861CE
:105210000EE0FDF79BF902463B69D31A022B07D932
:10522000032350E10038024000004742800E47420D
:10523000884B5B6F03F00203002BEAD17B681B688D
:1052400003F00403002B00F097800023FB75814BD3
:105250001B6C03F08053002B0FD10023BB607D4BF0
:105260001B6C7C4A43F0805313647A4B1B6C03F035
:105270008053BB60BB680123FB75774B1B6803F44D
:105280008073002B18D1744B1B68734A43F48073EE
:105290001360FDF75BF9386108E0FDF757F9024646
:1052A0003B69D31A022B01D903230CE16A4B1B681B
:1052B00003F48073002BF0D07B689B68012B06D130
:1052C000644B1B6F634A43F0010313671CE07B6868
:1052D0009B68052B0CD15F4B1B6F5E4A43F00403A8
:1052E00013675C4B1B6F5B4A43F0010313670BE0D2
:1052F000584B1B6F574A23F001031367554B1B6F25
:10530000544A23F0040313677B689B68002B15D075
:10531000FDF71CF938610AE0FDF718F902463B6910
:10532000D31A41F28832934201D90323CBE0494B8F
:105330001B6F03F00203002BEED014E0FDF706F91B
:1053400038610AE0FDF702F902463B69D31A41F2DF
:105350008832934201D90323B5E03E4B1B6F03F023
:105360000203002BEED1FB7D012B05D1394B1B6CC9
:10537000384A23F0805313647B689B69002B00F04C
:10538000A180344B9B6803F00C03082B5CD07B6836
:105390009B69022B41D1314B00221A60FDF7D6F8F0
:1053A000386108E0FDF7D2F802463B69D31A022BB8
:1053B00001D9032387E0274B1B6803F00073002B00
:1053C000F0D17B68DA697B681B6A1A437B685B6A89
:1053D0009B011A437B689B6A5B08013B1B041A43D1
:1053E0007B68DB6A1B061B4913434B601B4B012286
:1053F0001A60FDF7ABF8386108E0FDF7A7F8024640
:105400003B69D31A022B01D903235CE0114B1B68C3
:1054100003F00073002BF0D054E0104B00221A6010
:10542000FDF794F8386108E0FDF790F802463B6913
:10543000D31A022B01D9032345E0064B1B6803F066
:105440000073002BF0D13DE07B689B69012B07D1F5
:10545000012338E0003802400070004060004742FD
:105460001B4B5B68FB607B689B69012B28D0FB684A
:1054700003F480027B68DB699A4221D1FB6803F068
:105480003F027B681B6A9A421AD1FA6847F6C073DA
:1054900013407A68526A9201934211D1FB6803F477
:1054A00040327B689B6A5B08013B1B049A4207D130
:1054B000FB6803F070627B68DB6A1B069A4201D0CE
:1054C000012300E0002318461837BD4680BD00BF09
:1054D0000038024080B584B000AF786039607B68E6
:1054E000002B01D10123CCE0684B1B6803F00703BC
:1054F0003A689A420CD9654B3A68D2B21A70634B3B
:105500001B6803F007033A689A4201D00123B8E010
:105510007B681B6803F00203002B20D07B681B68AC
:1055200003F00403002B05D0594B9B68584A43F401
:10553000E05393607B681B6803F00803002B05D0E1
:10554000534B9B68524A43F460439360504B9B68B3
:1055500023F0F0027B689B684D4913438B607B68A6
:105560001B6803F00103002B44D07B685B68012BB0
:1055700007D1474B1B6803F40033002B19D10123DB
:105580007FE07B685B68022B03D07B685B68032B42
:1055900007D13F4B1B6803F00073002B09D1012397
:1055A0006FE03B4B1B6803F00203002B01D101238A
:1055B00067E0374B9B6823F003027B685B683449E4
:1055C00013438B60FCF7C2FFF8600AE0FCF7BEFFF4
:1055D0000246FB68D31A41F28832934201D9032371
:1055E0004FE02B4B9B6803F00C027B685B689B00D1
:1055F0009A42EBD1254B1B6803F007033A689A42A5
:105600000CD2224B3A68D2B21A70204B1B6803F0BE
:1056100007033A689A4201D0012332E07B681B6895
:1056200003F00403002B08D0194B9B6823F4E052CD
:105630007B68DB68164913438B607B681B6803F04B
:105640000803002B09D0124B9B6823F460427B684F
:105650001B69DB000E4913438B6000F021F8024602
:105660000B4B9B681B0903F00F030A49CB5C22FA22
:1056700003F3094A1360094B1B681846FCF722FF25
:10568000002318461037BD4680BD00BF003C0240D5
:1056900000380240FCE00008000000200400002068
:1056A0002DE9B04F94B000AF00237B640023FB646E
:1056B00000233B640023BB64794B9B6803F00C031D
:1056C000082B0DD0082B00F2E180002B02D0042B18
:1056D00003D0DBE0734BBB64DBE0734BBB64D8E00F
:1056E0006F4B5B6803F03F037B646D4B5B6803F4B7
:1056F0008003002B63D06A4B5B689B090022BB636D
:10570000FA63BB6BC3F308033B6300237B63D7E9F6
:105710000C4522462B464FF000004FF00001590186
:1057200041EAD261500102460B462146511A3961C5
:10573000294663EB01037B614FF000024FF0000349
:10574000D7E904AB59468B01514643EA9163514670
:105750008A015146B2EB0108594663EB01094FF04B
:1057600000024FF000034FEAC90343EA58734FEABF
:10577000C80290469946234618EB0303BB602B46AC
:1057800049EB0303FB604FF000024FF00003D7E941
:10579000024529464B02214643EAD15321464A029B
:1057A000104619467B6C0022BB62FA62D7E90A23D5
:1057B000FBF74AFA02460B461346FB6458E0384BA7
:1057C0005B689B09002218461146C0F308033B6240
:1057D00000237B62D7E9088942464B464FF0000020
:1057E0004FF00001590141EAD261500102460B46D7
:1057F0004146B2EB010A494663EB010B4FF0000250
:105800004FF000034FEA8B1343EA9A634FEA8A1280
:10581000B2EB0A0463EB0B054FF000024FF00003FC
:10582000EB0043EA5473E20014461D464346E31876
:105830003B604B4645EB03037B604FF000024FF0AB
:105840000003D7E9004529468B02214643EA9153DC
:1058500021468A02104619467B6C0022BB61FA6120
:10586000D7E90623FBF7F0F902460B461346FB6423
:105870000B4B5B681B0C03F0030301335B003B64C1
:10588000FA6C3B6CB2FBF3F3BB6402E0054BBB6408
:1058900000BFBB6C18465037BD46BDE8B08F00BF97
:1058A000003802400024F40000127A0080B400AFF7
:1058B000034B1B681846BD465DF8047B704700BF6C
:1058C0000000002080B500AFFFF7F0FF0246054B57
:1058D0009B689B0A03F007030349CB5C22FA03F39E
:1058E000184680BD003802400CE1000884B080B545
:1058F00084B000AF786007F11C0080E80E003B6BBD
:10590000012B22D17B689B6B23F480327B689A63E6
:105910007B68DB6823F4840323F040037A68D36058
:105920007B68DB6823F440127B68DA60FB6C012B38
:1059300005D17B68DB6843F480127B68DA607868A5
:1059400001F0EEFB0346FB731AE07B68DB6843F073
:1059500040027B68DA60786801F0E2FB0346FB7383
:105960003B6C002B06D17B689B6B43F480327B68D9
:105970009A6305E07B689B6B23F480327B689A63B3
:10598000BB6A012B0BD17B689B6843F006027B68E6
:105990009A607B689B6843F020027B689A60FB7B7F
:1059A00018461037BD46BDE8804004B0704700007F
:1059B00080B487B000AFF860B9601346FB71FB7923
:1059C000022B65D1BB68414A934206D9BB68404A65
:1059D000934202D20F237B6162E0BB683C4A934250
:1059E00006D3BB683B4A934202D20E237B6157E049
:1059F000BB68384A934206D3BB68374A934202D207
:105A00000D237B614CE0BB68334A934206D3BB68ED
:105A1000324A934202D80C237B6141E0BB682F4A93
:105A2000934206D9BB682E4A934202D80B237B616E
:105A300036E0BB682A4A934206D9BB68294A93429A
:105A400002D80A237B612BE0BB68264A934206D921
:105A5000BB68254A934202D209237B6120E0BB68E0
:105A6000214A934206D3BB68204A934202D80823B6
:105A70007B6115E0BB681D4A934206D9BB681C4A8E
:105A8000934202D207237B610AE006237B6107E091
:105A9000FB79002B02D109237B6101E009237B61A3
:105AA000FB68DB6823F47052FB68DA60FB68DA6835
:105AB0007B699B0203F470531A43FB68DA6000238E
:105AC00018461C37BD465DF8047B7047BFACD80054
:105AD000C0E1E4000024F400807306019F491A012C
